{
  "_format": "hh-sol-artifact-1",
  "contractName": "TaskEscrow",
  "sourceName": "contracts/TaskEscrow.sol",
  "abi": [
    {
      "inputs": [
        {
          "internalType": "address",
          "name": "_cUSDAddress",
          "type": "address"
        }
      ],
      "stateMutability": "nonpayable",
      "type": "constructor"
    },
    {
      "inputs": [],
      "name": "EnforcedPause",
      "type": "error"
    },
    {
      "inputs": [],
      "name": "ExpectedPause",
      "type": "error"
    },
    {
      "inputs": [
        {
          "internalType": "address",
          "name": "owner",
          "type": "address"
        }
      ],
      "name": "OwnableInvalidOwner",
      "type": "error"
    },
    {
      "inputs": [
        {
          "internalType": "address",
          "name": "account",
          "type": "address"
        }
      ],
      "name": "OwnableUnauthorizedAccount",
      "type": "error"
    },
    {
      "inputs": [],
      "name": "ReentrancyGuardReentrantCall",
      "type": "error"
    },
    {
      "inputs": [
        {
          "internalType": "address",
          "name": "token",
          "type": "address"
        }
      ],
      "name": "SafeERC20FailedOperation",
      "type": "error"
    },
    {
      "anonymous": false,
      "inputs": [
        {
          "indexed": true,
          "internalType": "address",
          "name": "previousOwner",
          "type": "address"
        },
        {
          "indexed": true,
          "internalType": "address",
          "name": "newOwner",
          "type": "address"
        }
      ],
      "name": "OwnershipTransferred",
      "type": "event"
    },
    {
      "anonymous": false,
      "inputs": [
        {
          "indexed": false,
          "internalType": "address",
          "name": "account",
          "type": "address"
        }
      ],
      "name": "Paused",
      "type": "event"
    },
    {
      "anonymous": false,
      "inputs": [
        {
          "indexed": true,
          "internalType": "uint256",
          "name": "taskId",
          "type": "uint256"
        },
        {
          "indexed": true,
          "internalType": "address",
          "name": "worker",
          "type": "address"
        },
        {
          "indexed": false,
          "internalType": "uint256",
          "name": "workerAmount",
          "type": "uint256"
        },
        {
          "indexed": false,
          "internalType": "uint256",
          "name": "platformFee",
          "type": "uint256"
        }
      ],
      "name": "PaymentReleased",
      "type": "event"
    },
    {
      "anonymous": false,
      "inputs": [
        {
          "indexed": true,
          "internalType": "address",
          "name": "owner",
          "type": "address"
        },
        {
          "indexed": false,
          "internalType": "uint256",
          "name": "amount",
          "type": "uint256"
        }
      ],
      "name": "PlatformFeesWithdrawn",
      "type": "event"
    },
    {
      "anonymous": false,
      "inputs": [
        {
          "indexed": true,
          "internalType": "uint256",
          "name": "taskId",
          "type": "uint256"
        },
        {
          "indexed": true,
          "internalType": "address",
          "name": "requester",
          "type": "address"
        },
        {
          "indexed": false,
          "internalType": "uint256",
          "name": "refundAmount",
          "type": "uint256"
        }
      ],
      "name": "TaskCancelled",
      "type": "event"
    },
    {
      "anonymous": false,
      "inputs": [
        {
          "indexed": true,
          "internalType": "uint256",
          "name": "taskId",
          "type": "uint256"
        },
        {
          "indexed": true,
          "internalType": "address",
          "name": "requester",
          "type": "address"
        },
        {
          "indexed": false,
          "internalType": "uint256",
          "name": "paymentAmount",
          "type": "uint256"
        },
        {
          "indexed": false,
          "internalType": "uint256",
          "name": "expiresAt",
          "type": "uint256"
        }
      ],
      "name": "TaskCreated",
      "type": "event"
    },
    {
      "anonymous": false,
      "inputs": [
        {
          "indexed": true,
          "internalType": "uint256",
          "name": "taskId",
          "type": "uint256"
        },
        {
          "indexed": true,
          "internalType": "address",
          "name": "requester",
          "type": "address"
        },
        {
          "indexed": false,
          "internalType": "uint256",
          "name": "refundAmount",
          "type": "uint256"
        }
      ],
      "name": "TaskExpired",
      "type": "event"
    },
    {
      "anonymous": false,
      "inputs": [
        {
          "indexed": false,
          "internalType": "address",
          "name": "account",
          "type": "address"
        }
      ],
      "name": "Unpaused",
      "type": "event"
    },
    {
      "anonymous": false,
      "inputs": [
        {
          "indexed": true,
          "internalType": "uint256",
          "name": "taskId",
          "type": "uint256"
        },
        {
          "indexed": true,
          "internalType": "address",
          "name": "worker",
          "type": "address"
        }
      ],
      "name": "WorkerAssigned",
      "type": "event"
    },
    {
      "inputs": [],
      "name": "BPS_DENOMINATOR",
      "outputs": [
        {
          "internalType": "uint256",
          "name": "",
          "type": "uint256"
        }
      ],
      "stateMutability": "view",
      "type": "function"
    },
    {
      "inputs": [],
      "name": "PLATFORM_FEE_BPS",
      "outputs": [
        {
          "internalType": "uint256",
          "name": "",
          "type": "uint256"
        }
      ],
      "stateMutability": "view",
      "type": "function"
    },
    {
      "inputs": [
        {
          "internalType": "uint256",
          "name": "_taskId",
          "type": "uint256"
        }
      ],
      "name": "approveSubmission",
      "outputs": [],
      "stateMutability": "nonpayable",
      "type": "function"
    },
    {
      "inputs": [
        {
          "internalType": "uint256",
          "name": "_taskId",
          "type": "uint256"
        },
        {
          "internalType": "address",
          "name": "_worker",
          "type": "address"
        }
      ],
      "name": "assignWorker",
      "outputs": [],
      "stateMutability": "nonpayable",
      "type": "function"
    },
    {
      "inputs": [],
      "name": "cUSD",
      "outputs": [
        {
          "internalType": "contract IERC20",
          "name": "",
          "type": "address"
        }
      ],
      "stateMutability": "view",
      "type": "function"
    },
    {
      "inputs": [
        {
          "internalType": "uint256",
          "name": "_taskId",
          "type": "uint256"
        }
      ],
      "name": "cancelTask",
      "outputs": [],
      "stateMutability": "nonpayable",
      "type": "function"
    },
    {
      "inputs": [
        {
          "internalType": "uint256",
          "name": "_taskId",
          "type": "uint256"
        }
      ],
      "name": "claimExpiredTask",
      "outputs": [],
      "stateMutability": "nonpayable",
      "type": "function"
    },
    {
      "inputs": [
        {
          "internalType": "uint256",
          "name": "_paymentAmount",
          "type": "uint256"
        },
        {
          "internalType": "uint256",
          "name": "_durationInDays",
          "type": "uint256"
        }
      ],
      "name": "createTask",
      "outputs": [
        {
          "internalType": "uint256",
          "name": "",
          "type": "uint256"
        }
      ],
      "stateMutability": "nonpayable",
      "type": "function"
    },
    {
      "inputs": [],
      "name": "getContractBalance",
      "outputs": [
        {
          "internalType": "uint256",
          "name": "",
          "type": "uint256"
        }
      ],
      "stateMutability": "view",
      "type": "function"
    },
    {
      "inputs": [
        {
          "internalType": "uint256",
          "name": "_taskId",
          "type": "uint256"
        }
      ],
      "name": "getTask",
      "outputs": [
        {
          "components": [
            {
              "internalType": "uint256",
              "name": "taskId",
              "type": "uint256"
            },
            {
              "internalType": "address",
              "name": "requester",
              "type": "address"
            },
            {
              "internalType": "address",
              "name": "worker",
              "type": "address"
            },
            {
              "internalType": "uint256",
              "name": "paymentAmount",
              "type": "uint256"
            },
            {
              "internalType": "enum TaskEscrow.TaskStatus",
              "name": "status",
              "type": "uint8"
            },
            {
              "internalType": "uint256",
              "name": "createdAt",
              "type": "uint256"
            },
            {
              "internalType": "uint256",
              "name": "expiresAt",
              "type": "uint256"
            }
          ],
          "internalType": "struct TaskEscrow.Task",
          "name": "",
          "type": "tuple"
        }
      ],
      "stateMutability": "view",
      "type": "function"
    },
    {
      "inputs": [
        {
          "internalType": "uint256",
          "name": "_taskId",
          "type": "uint256"
        }
      ],
      "name": "isTaskExpired",
      "outputs": [
        {
          "internalType": "bool",
          "name": "",
          "type": "bool"
        }
      ],
      "stateMutability": "view",
      "type": "function"
    },
    {
      "inputs": [],
      "name": "owner",
      "outputs": [
        {
          "internalType": "address",
          "name": "",
          "type": "address"
        }
      ],
      "stateMutability": "view",
      "type": "function"
    },
    {
      "inputs": [],
      "name": "pause",
      "outputs": [],
      "stateMutability": "nonpayable",
      "type": "function"
    },
    {
      "inputs": [],
      "name": "paused",
      "outputs": [
        {
          "internalType": "bool",
          "name": "",
          "type": "bool"
        }
      ],
      "stateMutability": "view",
      "type": "function"
    },
    {
      "inputs": [],
      "name": "platformFeesAccumulated",
      "outputs": [
        {
          "internalType": "uint256",
          "name": "",
          "type": "uint256"
        }
      ],
      "stateMutability": "view",
      "type": "function"
    },
    {
      "inputs": [
        {
          "internalType": "uint256",
          "name": "_taskId",
          "type": "uint256"
        }
      ],
      "name": "rejectSubmission",
      "outputs": [],
      "stateMutability": "nonpayable",
      "type": "function"
    },
    {
      "inputs": [],
      "name": "renounceOwnership",
      "outputs": [],
      "stateMutability": "nonpayable",
      "type": "function"
    },
    {
      "inputs": [],
      "name": "taskCounter",
      "outputs": [
        {
          "internalType": "uint256",
          "name": "",
          "type": "uint256"
        }
      ],
      "stateMutability": "view",
      "type": "function"
    },
    {
      "inputs": [
        {
          "internalType": "uint256",
          "name": "",
          "type": "uint256"
        }
      ],
      "name": "taskExists",
      "outputs": [
        {
          "internalType": "bool",
          "name": "",
          "type": "bool"
        }
      ],
      "stateMutability": "view",
      "type": "function"
    },
    {
      "inputs": [
        {
          "internalType": "uint256",
          "name": "",
          "type": "uint256"
        }
      ],
      "name": "tasks",
      "outputs": [
        {
          "internalType": "uint256",
          "name": "taskId",
          "type": "uint256"
        },
        {
          "internalType": "address",
          "name": "requester",
          "type": "address"
        },
        {
          "internalType": "address",
          "name": "worker",
          "type": "address"
        },
        {
          "internalType": "uint256",
          "name": "paymentAmount",
          "type": "uint256"
        },
        {
          "internalType": "enum TaskEscrow.TaskStatus",
          "name": "status",
          "type": "uint8"
        },
        {
          "internalType": "uint256",
          "name": "createdAt",
          "type": "uint256"
        },
        {
          "internalType": "uint256",
          "name": "expiresAt",
          "type": "uint256"
        }
      ],
      "stateMutability": "view",
      "type": "function"
    },
    {
      "inputs": [
        {
          "internalType": "address",
          "name": "newOwner",
          "type": "address"
        }
      ],
      "name": "transferOwnership",
      "outputs": [],
      "stateMutability": "nonpayable",
      "type": "function"
    },
    {
      "inputs": [],
      "name": "unpause",
      "outputs": [],
      "stateMutability": "nonpayable",
      "type": "function"
    },
    {
      "inputs": [],
      "name": "withdrawPlatformFees",
      "outputs": [],
      "stateMutability": "nonpayable",
      "type": "function"
    }
  ],
  "bytecode": "0x60a06040523480156200001157600080fd5b506040516200196238038062001962833981016040819052620000349162000126565b33806200005c57604051631e4fbdf760e01b8152600060048201526024015b60405180910390fd5b6200006781620000d6565b50600180556001600160a01b038116620000c45760405162461bcd60e51b815260206004820152601460248201527f496e76616c696420635553442061646472657373000000000000000000000000604482015260640162000053565b6001600160a01b031660805262000158565b600080546001600160a01b038381166001600160a01b0319831681178455604051919092169283917f8be0079c531659141344cd1fd0a4f28419497f9722a3daafe3b4186f6b6457e09190a35050565b6000602082840312156200013957600080fd5b81516001600160a01b03811681146200015157600080fd5b9392505050565b6080516117bd620001a5600039600081816101950152818161050a0152818161070d01528181610b4001528181610d3701528181610eb301528181610fa7015261110e01526117bd6000f3fe608060405234801561001057600080fd5b506004361061014d5760003560e01c80637eec20a8116100c3578063d0b7830b1161007c578063d0b7830b14610305578063d90583df1461030d578063e1a4521814610330578063e75b237814610339578063f2fde38b1461034c578063f641fe391461035f57600080fd5b80637eec20a81461024457806380fd0fb3146102575780638456cb591461026a5780638d977672146102725780638da5cb5b146102e1578063c14f7ea8146102f257600080fd5b8063586717301161011557806358671730146101ee5780635c975abb146101f75780636893bd761461020e5780636f9fb98a14610221578063715018a6146102295780637464a25b1461023157600080fd5b80630fd6fc47146101525780631d65e77e146101675780631fccf672146101905780633f4ba83a146101cf578063539aa77f146101d7575b600080fd5b61016561016036600461152a565b610368565b005b61017a61017536600461152a565b610588565b604051610187919061157b565b60405180910390f35b6101b77f000000000000000000000000000000000000000000000000000000000000000081565b6040516001600160a01b039091168152602001610187565b610165610699565b6101e06101f481565b604051908152602001610187565b6101e060045481565b60025460ff165b6040519015158152602001610187565b6101fe61021c36600461152a565b6106ab565b6101e06106f5565b610165610785565b61016561023f3660046115fc565b610797565b61016561025236600461152a565b610a0b565b61016561026536600461152a565b610bc0565b610165610dbe565b6102ce61028036600461152a565b6005602081905260009182526040909120805460018201546002830154600384015460048501549585015460069095015493956001600160a01b03938416959290931693909260ff16919087565b6040516101879796959493929190611628565b6000546001600160a01b03166101b7565b61016561030036600461152a565b610dce565b610165610f2d565b6101fe61031b36600461152a565b60066020526000908152604090205460ff1681565b6101e061271081565b6101e061034736600461166f565b611026565b61016561035a366004611691565b611266565b6101e060035481565b600081815260066020526040902054819060ff166103a15760405162461bcd60e51b8152600401610398906116b3565b60405180910390fd5b6103a96112a4565b600082815260056020526040902060068101544210156104025760405162461bcd60e51b815260206004820152601460248201527315185cdac81b9bdd08195e1c1a5c9959081e595d60621b6044820152606401610398565b600060048083015460ff169081111561041d5761041d611543565b14806104415750600160048083015460ff169081111561043f5761043f611543565b145b6104865760405162461bcd60e51b815260206004820152601660248201527515185cdac8185b1c9958591e48199a5b985b1a5e995960521b6044820152606401610398565b60018101546001600160a01b031633146104e25760405162461bcd60e51b815260206004820152601860248201527f4f6e6c79207265717565737465722063616e20636c61696d00000000000000006044820152606401610398565b60038101546004808301805460ff191690911790556001820154610533906001600160a01b037f000000000000000000000000000000000000000000000000000000000000000081169116836112ce565b60018201546040518281526001600160a01b039091169085907fd845cee2f655933a3b23c07031ecdf7210361d2f8b5c56efc1aed356408436f49060200160405180910390a3505061058460018055565b5050565b6105c86040805160e08101825260008082526020820181905291810182905260608101829052906080820190815260200160008152602001600081525090565b600082815260066020526040902054829060ff166105f85760405162461bcd60e51b8152600401610398906116b3565b600083815260056020908152604091829020825160e0810184528154815260018201546001600160a01b039081169382019390935260028201549092169282019290925260038201546060820152600480830154919291608084019160ff9091169081111561066957610669611543565b600481111561067a5761067a611543565b8152600582015460208201526006909101546040909101529392505050565b6106a161132d565b6106a961135a565b565b600081815260066020526040812054829060ff166106db5760405162461bcd60e51b8152600401610398906116b3565b505060009081526005602052604090206006015442101590565b6040516370a0823160e01b81523060048201526000907f00000000000000000000000000000000000000000000000000000000000000006001600160a01b0316906370a0823190602401602060405180830381865afa15801561075c573d6000803e3d6000fd5b505050506040513d601f19601f8201168201806040525081019061078091906116e0565b905090565b61078d61132d565b6106a960006113ac565b600082815260066020526040902054829060ff166107c75760405162461bcd60e51b8152600401610398906116b3565b8260008082815260056020526040902060049081015460ff16908111156107f0576107f0611543565b1461082d5760405162461bcd60e51b815260206004820152600d60248201526c2a30b9b5903737ba1037b832b760991b6044820152606401610398565b6000848152600560205260409020600601548490421061087e5760405162461bcd60e51b815260206004820152600c60248201526b15185cdac8195e1c1a5c995960a21b6044820152606401610398565b60008581526005602052604090206001015485906001600160a01b031633146108de5760405162461bcd60e51b81526020600482015260126024820152712737ba103a30b9b5903932b8bab2b9ba32b960711b6044820152606401610398565b6001600160a01b03851661092d5760405162461bcd60e51b8152602060048201526016602482015275496e76616c696420776f726b6572206164647265737360501b6044820152606401610398565b6000868152600560205260409020600101546001600160a01b039081169086160361099a5760405162461bcd60e51b815260206004820152601a60248201527f5265717565737465722063616e6e6f7420626520776f726b65720000000000006044820152606401610398565b6000868152600560205260408082206002810180546001600160a01b0319166001600160a01b038a169081179091556004909101805460ff191660011790559051909188917f5a947a7963f521bdb91d091674dcedd326f71c169b636d55fbbee5704adeb9769190a3505050505050565b600081815260066020526040902054819060ff16610a3b5760405162461bcd60e51b8152600401610398906116b3565b8160008082815260056020526040902060049081015460ff1690811115610a6457610a64611543565b14610aa15760405162461bcd60e51b815260206004820152600d60248201526c2a30b9b5903737ba1037b832b760991b6044820152606401610398565b60008381526005602052604090206001015483906001600160a01b03163314610b015760405162461bcd60e51b81526020600482015260126024820152712737ba103a30b9b5903932b8bab2b9ba32b960711b6044820152606401610398565b610b096112a4565b600084815260056020526040902060038082015460048301805460ff19169092179091556001820154610b69906001600160a01b037f000000000000000000000000000000000000000000000000000000000000000081169116836112ce565b60018201546040518281526001600160a01b039091169087907f06f63d695245e4cf8f0b7aae0b8da95876a4b173ba8d0d4466cc83c357dda3a89060200160405180910390a35050610bba60018055565b50505050565b600081815260066020526040902054819060ff16610bf05760405162461bcd60e51b8152600401610398906116b3565b816001600082815260056020526040902060049081015460ff1690811115610c1a57610c1a611543565b14610c5e5760405162461bcd60e51b81526020600482015260146024820152735461736b206e6f7420696e2070726f677265737360601b6044820152606401610398565b610c6661132d565b610c6e6112a4565b600083815260056020526040902060028101546001600160a01b0316610ccb5760405162461bcd60e51b8152602060048201526012602482015271139bc81ddbdc9ad95c88185cdcda59db995960721b6044820152606401610398565b60038101546000612710610ce16101f48461170f565b610ceb9190611726565b90506000610cf98284611748565b60048501805460ff19166002179055600380549192508391600090610d1f90849061175b565b90915550506002840154610d60906001600160a01b037f000000000000000000000000000000000000000000000000000000000000000081169116836112ce565b600284015460408051838152602081018590526001600160a01b039092169189917f8cdc8dc08e54a4e57f52077ecf1b4c508758513439cae2aa325dcc85b922fca8910160405180910390a350505050610db960018055565b505050565b610dc661132d565b6106a96113fc565b600081815260066020526040902054819060ff16610dfe5760405162461bcd60e51b8152600401610398906116b3565b816001600082815260056020526040902060049081015460ff1690811115610e2857610e28611543565b14610e6c5760405162461bcd60e51b81526020600482015260146024820152735461736b206e6f7420696e2070726f677265737360601b6044820152606401610398565b610e7461132d565b610e7c6112a4565b600083815260056020526040902060038082015460048301805460ff19169092179091556001820154610edc906001600160a01b037f000000000000000000000000000000000000000000000000000000000000000081169116836112ce565b60018201546040518281526001600160a01b039091169086907f06f63d695245e4cf8f0b7aae0b8da95876a4b173ba8d0d4466cc83c357dda3a89060200160405180910390a35050610db960018055565b610f3561132d565b610f3d6112a4565b60035480610f835760405162461bcd60e51b81526020600482015260136024820152724e6f206665657320746f20776974686472617760681b6044820152606401610398565b6000600355610fce610f9d6000546001600160a01b031690565b6001600160a01b037f00000000000000000000000000000000000000000000000000000000000000001690836112ce565b6000546001600160a01b03166001600160a01b03167ffc7ad544ff6a06d6499925723d25b6fe70457a42939995b1d3d6f560fe3363338260405161101491815260200190565b60405180910390a2506106a960018055565b6000611030611439565b6110386112a4565b6000831161107e5760405162461bcd60e51b815260206004820152601360248201527205061796d656e74206d757374206265203e203606c1b6044820152606401610398565b60008211801561108f5750605a8211155b6110ce5760405162461bcd60e51b815260206004820152601060248201526f24b73b30b634b210323ab930ba34b7b760811b6044820152606401610398565b600480549060006110de8361176e565b909155505060045460006110f5846201518061170f565b6110ff904261175b565b90506111366001600160a01b037f00000000000000000000000000000000000000000000000000000000000000001633308861145d565b6040805160e0810182528381523360208083019182526000838501818152606085018b8152608086018381524260a088015260c08701899052898452600590945295909120845181559251600180850180546001600160a01b03199081166001600160a01b03948516179091559251600286018054909416921691909117909155935160038301555160048083018054949593949293909260ff19169184908111156111e4576111e4611543565b021790555060a0820151600582015560c09091015160069182015560008381526020918252604090819020805460ff191660011790558051878152918201839052339184917ff5ac772f880dc6ed6b50db24e062bbc51818e270ed47533fd9162e5255fa2913910160405180910390a350905061126060018055565b92915050565b61126e61132d565b6001600160a01b03811661129857604051631e4fbdf760e01b815260006004820152602401610398565b6112a1816113ac565b50565b6002600154036112c757604051633ee5aeb560e01b815260040160405180910390fd5b6002600155565b6040516001600160a01b03838116602483015260448201839052610db991859182169063a9059cbb906064015b604051602081830303815290604052915060e01b6020820180516001600160e01b038381831617835250505050611496565b6000546001600160a01b031633146106a95760405163118cdaa760e01b8152336004820152602401610398565b611362611507565b6002805460ff191690557f5db9ee0a495bf2e6ff9c91a7834c1ba4fdd244a5e8aa4e537bd38aeae4b073aa335b6040516001600160a01b03909116815260200160405180910390a1565b600080546001600160a01b038381166001600160a01b0319831681178455604051919092169283917f8be0079c531659141344cd1fd0a4f28419497f9722a3daafe3b4186f6b6457e09190a35050565b611404611439565b6002805460ff191660011790557f62e78cea01bee320cd4e420270b5ea74000d11b0c9f74754ebdbfc544b05a25861138f3390565b60025460ff16156106a95760405163d93c066560e01b815260040160405180910390fd5b6040516001600160a01b038481166024830152838116604483015260648201839052610bba9186918216906323b872dd906084016112fb565b600080602060008451602086016000885af1806114b9576040513d6000823e3d81fd5b50506000513d915081156114d15780600114156114de565b6001600160a01b0384163b155b15610bba57604051635274afe760e01b81526001600160a01b0385166004820152602401610398565b60025460ff166106a957604051638dfc202b60e01b815260040160405180910390fd5b60006020828403121561153c57600080fd5b5035919050565b634e487b7160e01b600052602160045260246000fd5b6005811061157757634e487b7160e01b600052602160045260246000fd5b9052565b600060e08201905082518252602083015160018060a01b03808216602085015280604086015116604085015250506060830151606083015260808301516115c56080840182611559565b5060a083015160a083015260c083015160c083015292915050565b80356001600160a01b03811681146115f757600080fd5b919050565b6000806040838503121561160f57600080fd5b8235915061161f602084016115e0565b90509250929050565b8781526001600160a01b038781166020830152861660408201526060810185905260e0810161165a6080830186611559565b60a082019390935260c0015295945050505050565b6000806040838503121561168257600080fd5b50508035926020909101359150565b6000602082840312156116a357600080fd5b6116ac826115e0565b9392505050565b60208082526013908201527215185cdac8191bd95cc81b9bdd08195e1a5cdd606a1b604082015260600190565b6000602082840312156116f257600080fd5b5051919050565b634e487b7160e01b600052601160045260246000fd5b8082028115828204841417611260576112606116f9565b60008261174357634e487b7160e01b600052601260045260246000fd5b500490565b81810381811115611260576112606116f9565b80820180821115611260576112606116f9565b600060018201611780576117806116f9565b506001019056fea2646970667358221220744a31e59c1af0fdb164b57334fe157197c1736f37a5cc7d8f5e2d5479670dc564736f6c63430008140033",
  "linkReferences": {},
  "deployedLinkReferences": {}
}