{"contracts/TaskEscrow.sol":{"TaskEscrow":{"abi":[{"inputs":[{"internalType":"address","name":"_cUSDAddress","type":"address"}],"stateMutability":"nonpayable","type":"constructor"},{"inputs":[],"name":"EnforcedPause","type":"error"},{"inputs":[],"name":"ExpectedPause","type":"error"},{"inputs":[{"internalType":"address","name":"owner","type":"address"}],"name":"OwnableInvalidOwner","type":"error"},{"inputs":[{"internalType":"address","name":"account","type":"address"}],"name":"OwnableUnauthorizedAccount","type":"error"},{"inputs":[],"name":"ReentrancyGuardReentrantCall","type":"error"},{"inputs":[{"internalType":"address","name":"token","type":"address"}],"name":"SafeERC20FailedOperation","type":"error"},{"anonymous":false,"inputs":[{"indexed":true,"internalType":"address","name":"previousOwner","type":"address"},{"indexed":true,"internalType":"address","name":"newOwner","type":"address"}],"name":"OwnershipTransferred","type":"event"},{"anonymous":false,"inputs":[{"indexed":false,"internalType":"address","name":"account","type":"address"}],"name":"Paused","type":"event"},{"anonymous":false,"inputs":[{"indexed":true,"internalType":"uint256","name":"taskId","type":"uint256"},{"indexed":true,"internalType":"address","name":"worker","type":"address"},{"indexed":false,"internalType":"uint256","name":"workerAmount","type":"uint256"},{"indexed":false,"internalType":"uint256","name":"platformFee","type":"uint256"}],"name":"PaymentReleased","type":"event"},{"anonymous":false,"inputs":[{"indexed":true,"internalType":"address","name":"owner","type":"address"},{"indexed":false,"internalType":"uint256","name":"amount","type":"uint256"}],"name":"PlatformFeesWithdrawn","type":"event"},{"anonymous":false,"inputs":[{"indexed":true,"internalType":"uint256","name":"taskId","type":"uint256"},{"indexed":true,"internalType":"address","name":"requester","type":"address"},{"indexed":false,"internalType":"uint256","name":"refundAmount","type":"uint256"}],"name":"TaskCancelled","type":"event"},{"anonymous":false,"inputs":[{"indexed":true,"internalType":"uint256","name":"taskId","type":"uint256"},{"indexed":true,"internalType":"address","name":"requester","type":"address"},{"indexed":false,"internalType":"uint256","name":"paymentAmount","type":"uint256"},{"indexed":false,"internalType":"uint256","name":"expiresAt","type":"uint256"}],"name":"TaskCreated","type":"event"},{"anonymous":false,"inputs":[{"indexed":true,"internalType":"uint256","name":"taskId","type":"uint256"},{"indexed":true,"internalType":"address","name":"requester","type":"address"},{"indexed":false,"internalType":"uint256","name":"refundAmount","type":"uint256"}],"name":"TaskExpired","type":"event"},{"anonymous":false,"inputs":[{"indexed":false,"internalType":"address","name":"account","type":"address"}],"name":"Unpaused","type":"event"},{"anonymous":false,"inputs":[{"indexed":true,"internalType":"uint256","name":"taskId","type":"uint256"},{"indexed":true,"internalType":"address","name":"worker","type":"address"}],"name":"WorkerAssigned","type":"event"},{"inputs":[],"name":"BPS_DENOMINATOR","outputs":[{"internalType":"uint256","name":"","type":"uint256"}],"stateMutability":"view","type":"function"},{"inputs":[],"name":"PLATFORM_FEE_BPS","outputs":[{"internalType":"uint256","name":"","type":"uint256"}],"stateMutability":"view","type":"function"},{"inputs":[{"internalType":"uint256","name":"_taskId","type":"uint256"}],"name":"approveSubmission","outputs":[],"stateMutability":"nonpayable","type":"function"},{"inputs":[{"internalType":"uint256","name":"_taskId","type":"uint256"},{"internalType":"address","name":"_worker","type":"address"}],"name":"assignWorker","outputs":[],"stateMutability":"nonpayable","type":"function"},{"inputs":[],"name":"cUSD","outputs":[{"internalType":"contract IERC20","name":"","type":"address"}],"stateMutability":"view","type":"function"},{"inputs":[{"internalType":"uint256","name":"_taskId","type":"uint256"}],"name":"cancelTask","outputs":[],"stateMutability":"nonpayable","type":"function"},{"inputs":[{"internalType":"uint256","name":"_taskId","type":"uint256"}],"name":"claimExpiredTask","outputs":[],"stateMutability":"nonpayable","type":"function"},{"inputs":[{"internalType":"uint256","name":"_paymentAmount","type":"uint256"},{"internalType":"uint256","name":"_durationInDays","type":"uint256"}],"name":"createTask","outputs":[{"internalType":"uint256","name":"","type":"uint256"}],"stateMutability":"nonpayable","type":"function"},{"inputs":[],"name":"getContractBalance","outputs":[{"internalType":"uint256","name":"","type":"uint256"}],"stateMutability":"view","type":"function"},{"inputs":[{"internalType":"uint256","name":"_taskId","type":"uint256"}],"name":"getTask","outputs":[{"components":[{"internalType":"uint256","name":"taskId","type":"uint256"},{"internalType":"address","name":"requester","type":"address"},{"internalType":"address","name":"worker","type":"address"},{"internalType":"uint256","name":"paymentAmount","type":"uint256"},{"internalType":"enum TaskEscrow.TaskStatus","name":"status","type":"uint8"},{"internalType":"uint256","name":"createdAt","type":"uint256"},{"internalType":"uint256","name":"expiresAt","type":"uint256"}],"internalType":"struct TaskEscrow.Task","name":"","type":"tuple"}],"stateMutability":"view","type":"function"},{"inputs":[{"internalType":"uint256","name":"_taskId","type":"uint256"}],"name":"isTaskExpired","outputs":[{"internalType":"bool","name":"","type":"bool"}],"stateMutability":"view","type":"function"},{"inputs":[],"name":"owner","outputs":[{"internalType":"address","name":"","type":"address"}],"stateMutability":"view","type":"function"},{"inputs":[],"name":"pause","outputs":[],"stateMutability":"nonpayable","type":"function"},{"inputs":[],"name":"paused","outputs":[{"internalType":"bool","name":"","type":"bool"}],"stateMutability":"view","type":"function"},{"inputs":[],"name":"platformFeesAccumulated","outputs":[{"internalType":"uint256","name":"","type":"uint256"}],"stateMutability":"view","type":"function"},{"inputs":[{"internalType":"uint256","name":"_taskId","type":"uint256"}],"name":"rejectSubmission","outputs":[],"stateMutability":"nonpayable","type":"function"},{"inputs":[],"name":"renounceOwnership","outputs":[],"stateMutability":"nonpayable","type":"function"},{"inputs":[],"name":"taskCounter","outputs":[{"internalType":"uint256","name":"","type":"uint256"}],"stateMutability":"view","type":"function"},{"inputs":[{"internalType":"uint256","name":"","type":"uint256"}],"name":"taskExists","outputs":[{"internalType":"bool","name":"","type":"bool"}],"stateMutability":"view","type":"function"},{"inputs":[{"internalType":"uint256","name":"","type":"uint256"}],"name":"tasks","outputs":[{"internalType":"uint256","name":"taskId","type":"uint256"},{"internalType":"address","name":"requester","type":"address"},{"internalType":"address","name":"worker","type":"address"},{"internalType":"uint256","name":"paymentAmount","type":"uint256"},{"internalType":"enum TaskEscrow.TaskStatus","name":"status","type":"uint8"},{"internalType":"uint256","name":"createdAt","type":"uint256"},{"internalType":"uint256","name":"expiresAt","type":"uint256"}],"stateMutability":"view","type":"function"},{"inputs":[{"internalType":"address","name":"newOwner","type":"address"}],"name":"transferOwnership","outputs":[],"stateMutability":"nonpayable","type":"function"},{"inputs":[],"name":"unpause","outputs":[],"stateMutability":"nonpayable","type":"function"},{"inputs":[],"name":"withdrawPlatformFees","outputs":[],"stateMutability":"nonpayable","type":"function"}],"evm":{"bytecode":{"linkReferences":{},"object":"60a06040523480156200001157600080fd5b506040516200196238038062001962833981016040819052620000349162000126565b33806200005c57604051631e4fbdf760e01b8152600060048201526024015b60405180910390fd5b6200006781620000d6565b50600180556001600160a01b038116620000c45760405162461bcd60e51b815260206004820152601460248201527f496e76616c696420635553442061646472657373000000000000000000000000604482015260640162000053565b6001600160a01b031660805262000158565b600080546001600160a01b038381166001600160a01b0319831681178455604051919092169283917f8be0079c531659141344cd1fd0a4f28419497f9722a3daafe3b4186f6b6457e09190a35050565b6000602082840312156200013957600080fd5b81516001600160a01b03811681146200015157600080fd5b9392505050565b6080516117bd620001a5600039600081816101950152818161050a0152818161070d01528181610b4001528181610d3701528181610eb301528181610fa7015261110e01526117bd6000f3fe608060405234801561001057600080fd5b506004361061014d5760003560e01c80637eec20a8116100c3578063d0b7830b1161007c578063d0b7830b14610305578063d90583df1461030d578063e1a4521814610330578063e75b237814610339578063f2fde38b1461034c578063f641fe391461035f57600080fd5b80637eec20a81461024457806380fd0fb3146102575780638456cb591461026a5780638d977672146102725780638da5cb5b146102e1578063c14f7ea8146102f257600080fd5b8063586717301161011557806358671730146101ee5780635c975abb146101f75780636893bd761461020e5780636f9fb98a14610221578063715018a6146102295780637464a25b1461023157600080fd5b80630fd6fc47146101525780631d65e77e146101675780631fccf672146101905780633f4ba83a146101cf578063539aa77f146101d7575b600080fd5b61016561016036600461152a565b610368565b005b61017a61017536600461152a565b610588565b604051610187919061157b565b60405180910390f35b6101b77f000000000000000000000000000000000000000000000000000000000000000081565b6040516001600160a01b039091168152602001610187565b610165610699565b6101e06101f481565b604051908152602001610187565b6101e060045481565b60025460ff165b6040519015158152602001610187565b6101fe61021c36600461152a565b6106ab565b6101e06106f5565b610165610785565b61016561023f3660046115fc565b610797565b61016561025236600461152a565b610a0b565b61016561026536600461152a565b610bc0565b610165610dbe565b6102ce61028036600461152a565b6005602081905260009182526040909120805460018201546002830154600384015460048501549585015460069095015493956001600160a01b03938416959290931693909260ff16919087565b6040516101879796959493929190611628565b6000546001600160a01b03166101b7565b61016561030036600461152a565b610dce565b610165610f2d565b6101fe61031b36600461152a565b60066020526000908152604090205460ff1681565b6101e061271081565b6101e061034736600461166f565b611026565b61016561035a366004611691565b611266565b6101e060035481565b600081815260066020526040902054819060ff166103a15760405162461bcd60e51b8152600401610398906116b3565b60405180910390fd5b6103a96112a4565b600082815260056020526040902060068101544210156104025760405162461bcd60e51b815260206004820152601460248201527315185cdac81b9bdd08195e1c1a5c9959081e595d60621b6044820152606401610398565b600060048083015460ff169081111561041d5761041d611543565b14806104415750600160048083015460ff169081111561043f5761043f611543565b145b6104865760405162461bcd60e51b815260206004820152601660248201527515185cdac8185b1c9958591e48199a5b985b1a5e995960521b6044820152606401610398565b60018101546001600160a01b031633146104e25760405162461bcd60e51b815260206004820152601860248201527f4f6e6c79207265717565737465722063616e20636c61696d00000000000000006044820152606401610398565b60038101546004808301805460ff191690911790556001820154610533906001600160a01b037f000000000000000000000000000000000000000000000000000000000000000081169116836112ce565b60018201546040518281526001600160a01b039091169085907fd845cee2f655933a3b23c07031ecdf7210361d2f8b5c56efc1aed356408436f49060200160405180910390a3505061058460018055565b5050565b6105c86040805160e08101825260008082526020820181905291810182905260608101829052906080820190815260200160008152602001600081525090565b600082815260066020526040902054829060ff166105f85760405162461bcd60e51b8152600401610398906116b3565b600083815260056020908152604091829020825160e0810184528154815260018201546001600160a01b039081169382019390935260028201549092169282019290925260038201546060820152600480830154919291608084019160ff9091169081111561066957610669611543565b600481111561067a5761067a611543565b8152600582015460208201526006909101546040909101529392505050565b6106a161132d565b6106a961135a565b565b600081815260066020526040812054829060ff166106db5760405162461bcd60e51b8152600401610398906116b3565b505060009081526005602052604090206006015442101590565b6040516370a0823160e01b81523060048201526000907f00000000000000000000000000000000000000000000000000000000000000006001600160a01b0316906370a0823190602401602060405180830381865afa15801561075c573d6000803e3d6000fd5b505050506040513d601f19601f8201168201806040525081019061078091906116e0565b905090565b61078d61132d565b6106a960006113ac565b600082815260066020526040902054829060ff166107c75760405162461bcd60e51b8152600401610398906116b3565b8260008082815260056020526040902060049081015460ff16908111156107f0576107f0611543565b1461082d5760405162461bcd60e51b815260206004820152600d60248201526c2a30b9b5903737ba1037b832b760991b6044820152606401610398565b6000848152600560205260409020600601548490421061087e5760405162461bcd60e51b815260206004820152600c60248201526b15185cdac8195e1c1a5c995960a21b6044820152606401610398565b60008581526005602052604090206001015485906001600160a01b031633146108de5760405162461bcd60e51b81526020600482015260126024820152712737ba103a30b9b5903932b8bab2b9ba32b960711b6044820152606401610398565b6001600160a01b03851661092d5760405162461bcd60e51b8152602060048201526016602482015275496e76616c696420776f726b6572206164647265737360501b6044820152606401610398565b6000868152600560205260409020600101546001600160a01b039081169086160361099a5760405162461bcd60e51b815260206004820152601a60248201527f5265717565737465722063616e6e6f7420626520776f726b65720000000000006044820152606401610398565b6000868152600560205260408082206002810180546001600160a01b0319166001600160a01b038a169081179091556004909101805460ff191660011790559051909188917f5a947a7963f521bdb91d091674dcedd326f71c169b636d55fbbee5704adeb9769190a3505050505050565b600081815260066020526040902054819060ff16610a3b5760405162461bcd60e51b8152600401610398906116b3565b8160008082815260056020526040902060049081015460ff1690811115610a6457610a64611543565b14610aa15760405162461bcd60e51b815260206004820152600d60248201526c2a30b9b5903737ba1037b832b760991b6044820152606401610398565b60008381526005602052604090206001015483906001600160a01b03163314610b015760405162461bcd60e51b81526020600482015260126024820152712737ba103a30b9b5903932b8bab2b9ba32b960711b6044820152606401610398565b610b096112a4565b600084815260056020526040902060038082015460048301805460ff19169092179091556001820154610b69906001600160a01b037f000000000000000000000000000000000000000000000000000000000000000081169116836112ce565b60018201546040518281526001600160a01b039091169087907f06f63d695245e4cf8f0b7aae0b8da95876a4b173ba8d0d4466cc83c357dda3a89060200160405180910390a35050610bba60018055565b50505050565b600081815260066020526040902054819060ff16610bf05760405162461bcd60e51b8152600401610398906116b3565b816001600082815260056020526040902060049081015460ff1690811115610c1a57610c1a611543565b14610c5e5760405162461bcd60e51b81526020600482015260146024820152735461736b206e6f7420696e2070726f677265737360601b6044820152606401610398565b610c6661132d565b610c6e6112a4565b600083815260056020526040902060028101546001600160a01b0316610ccb5760405162461bcd60e51b8152602060048201526012602482015271139bc81ddbdc9ad95c88185cdcda59db995960721b6044820152606401610398565b60038101546000612710610ce16101f48461170f565b610ceb9190611726565b90506000610cf98284611748565b60048501805460ff19166002179055600380549192508391600090610d1f90849061175b565b90915550506002840154610d60906001600160a01b037f000000000000000000000000000000000000000000000000000000000000000081169116836112ce565b600284015460408051838152602081018590526001600160a01b039092169189917f8cdc8dc08e54a4e57f52077ecf1b4c508758513439cae2aa325dcc85b922fca8910160405180910390a350505050610db960018055565b505050565b610dc661132d565b6106a96113fc565b600081815260066020526040902054819060ff16610dfe5760405162461bcd60e51b8152600401610398906116b3565b816001600082815260056020526040902060049081015460ff1690811115610e2857610e28611543565b14610e6c5760405162461bcd60e51b81526020600482015260146024820152735461736b206e6f7420696e2070726f677265737360601b6044820152606401610398565b610e7461132d565b610e7c6112a4565b600083815260056020526040902060038082015460048301805460ff19169092179091556001820154610edc906001600160a01b037f000000000000000000000000000000000000000000000000000000000000000081169116836112ce565b60018201546040518281526001600160a01b039091169086907f06f63d695245e4cf8f0b7aae0b8da95876a4b173ba8d0d4466cc83c357dda3a89060200160405180910390a35050610db960018055565b610f3561132d565b610f3d6112a4565b60035480610f835760405162461bcd60e51b81526020600482015260136024820152724e6f206665657320746f20776974686472617760681b6044820152606401610398565b6000600355610fce610f9d6000546001600160a01b031690565b6001600160a01b037f00000000000000000000000000000000000000000000000000000000000000001690836112ce565b6000546001600160a01b03166001600160a01b03167ffc7ad544ff6a06d6499925723d25b6fe70457a42939995b1d3d6f560fe3363338260405161101491815260200190565b60405180910390a2506106a960018055565b6000611030611439565b6110386112a4565b6000831161107e5760405162461bcd60e51b815260206004820152601360248201527205061796d656e74206d757374206265203e203606c1b6044820152606401610398565b60008211801561108f5750605a8211155b6110ce5760405162461bcd60e51b815260206004820152601060248201526f24b73b30b634b210323ab930ba34b7b760811b6044820152606401610398565b600480549060006110de8361176e565b909155505060045460006110f5846201518061170f565b6110ff904261175b565b90506111366001600160a01b037f00000000000000000000000000000000000000000000000000000000000000001633308861145d565b6040805160e0810182528381523360208083019182526000838501818152606085018b8152608086018381524260a088015260c08701899052898452600590945295909120845181559251600180850180546001600160a01b03199081166001600160a01b03948516179091559251600286018054909416921691909117909155935160038301555160048083018054949593949293909260ff19169184908111156111e4576111e4611543565b021790555060a0820151600582015560c09091015160069182015560008381526020918252604090819020805460ff191660011790558051878152918201839052339184917ff5ac772f880dc6ed6b50db24e062bbc51818e270ed47533fd9162e5255fa2913910160405180910390a350905061126060018055565b92915050565b61126e61132d565b6001600160a01b03811661129857604051631e4fbdf760e01b815260006004820152602401610398565b6112a1816113ac565b50565b6002600154036112c757604051633ee5aeb560e01b815260040160405180910390fd5b6002600155565b6040516001600160a01b03838116602483015260448201839052610db991859182169063a9059cbb906064015b604051602081830303815290604052915060e01b6020820180516001600160e01b038381831617835250505050611496565b6000546001600160a01b031633146106a95760405163118cdaa760e01b8152336004820152602401610398565b611362611507565b6002805460ff191690557f5db9ee0a495bf2e6ff9c91a7834c1ba4fdd244a5e8aa4e537bd38aeae4b073aa335b6040516001600160a01b03909116815260200160405180910390a1565b600080546001600160a01b038381166001600160a01b0319831681178455604051919092169283917f8be0079c531659141344cd1fd0a4f28419497f9722a3daafe3b4186f6b6457e09190a35050565b611404611439565b6002805460ff191660011790557f62e78cea01bee320cd4e420270b5ea74000d11b0c9f74754ebdbfc544b05a25861138f3390565b60025460ff16156106a95760405163d93c066560e01b815260040160405180910390fd5b6040516001600160a01b038481166024830152838116604483015260648201839052610bba9186918216906323b872dd906084016112fb565b600080602060008451602086016000885af1806114b9576040513d6000823e3d81fd5b50506000513d915081156114d15780600114156114de565b6001600160a01b0384163b155b15610bba57604051635274afe760e01b81526001600160a01b0385166004820152602401610398565b60025460ff166106a957604051638dfc202b60e01b815260040160405180910390fd5b60006020828403121561153c57600080fd5b5035919050565b634e487b7160e01b600052602160045260246000fd5b6005811061157757634e487b7160e01b600052602160045260246000fd5b9052565b600060e08201905082518252602083015160018060a01b03808216602085015280604086015116604085015250506060830151606083015260808301516115c56080840182611559565b5060a083015160a083015260c083015160c083015292915050565b80356001600160a01b03811681146115f757600080fd5b919050565b6000806040838503121561160f57600080fd5b8235915061161f602084016115e0565b90509250929050565b8781526001600160a01b038781166020830152861660408201526060810185905260e0810161165a6080830186611559565b60a082019390935260c0015295945050505050565b6000806040838503121561168257600080fd5b50508035926020909101359150565b6000602082840312156116a357600080fd5b6116ac826115e0565b9392505050565b60208082526013908201527215185cdac8191bd95cc81b9bdd08195e1a5cdd606a1b604082015260600190565b6000602082840312156116f257600080fd5b5051919050565b634e487b7160e01b600052601160045260246000fd5b8082028115828204841417611260576112606116f9565b60008261174357634e487b7160e01b600052601260045260246000fd5b500490565b81810381811115611260576112606116f9565b80820180821115611260576112606116f9565b600060018201611780576117806116f9565b506001019056fea2646970667358221220744a31e59c1af0fdb164b57334fe157197c1736f37a5cc7d8f5e2d5479670dc564736f6c63430008140033","opcodes":"PUSH1 0xA0 PUSH1 0x40 MSTORE CALLVALUE DUP1 ISZERO PUSH3 0x11 JUMPI PUSH1 0x0 DUP1 REVERT JUMPDEST POP PUSH1 0x40 MLOAD PUSH3 0x1962 CODESIZE SUB DUP1 PUSH3 0x1962 DUP4 CODECOPY DUP2 ADD PUSH1 0x40 DUP2 SWAP1 MSTORE PUSH3 0x34 SWAP2 PUSH3 0x126 JUMP JUMPDEST CALLER DUP1 PUSH3 0x5C JUMPI PUSH1 0x40 MLOAD PUSH4 0x1E4FBDF7 PUSH1 0xE0 SHL DUP2 MSTORE PUSH1 0x0 PUSH1 0x4 DUP3 ADD MSTORE PUSH1 0x24 ADD JUMPDEST PUSH1 0x40 MLOAD DUP1 SWAP2 SUB SWAP1 REVERT JUMPDEST PUSH3 0x67 DUP2 PUSH3 0xD6 JUMP JUMPDEST POP PUSH1 0x1 DUP1 SSTORE PUSH1 0x1 PUSH1 0x1 PUSH1 0xA0 SHL SUB DUP2 AND PUSH3 0xC4 JUMPI PUSH1 0x40 MLOAD PUSH3 0x461BCD PUSH1 0xE5 SHL DUP2 MSTORE PUSH1 0x20 PUSH1 0x4 DUP3 ADD MSTORE PUSH1 0x14 PUSH1 0x24 DUP3 ADD MSTORE PUSH32 0x496E76616C696420635553442061646472657373000000000000000000000000 PUSH1 0x44 DUP3 ADD MSTORE PUSH1 0x64 ADD PUSH3 0x53 JUMP JUMPDEST PUSH1 0x1 PUSH1 0x1 PUSH1 0xA0 SHL SUB AND PUSH1 0x80 MSTORE PUSH3 0x158 JUMP JUMPDEST PUSH1 0x0 DUP1 SLOAD PUSH1 0x1 PUSH1 0x1 PUSH1 0xA0 SHL SUB DUP4 DUP2 AND PUSH1 0x1 PUSH1 0x1 PUSH1 0xA0 SHL SUB NOT DUP4 AND DUP2 OR DUP5 SSTORE PUSH1 0x40 MLOAD SWAP2 SWAP1 SWAP3 AND SWAP3 DUP4 SWAP2 PUSH32 0x8BE0079C531659141344CD1FD0A4F28419497F9722A3DAAFE3B4186F6B6457E0 SWAP2 SWAP1 LOG3 POP POP JUMP JUMPDEST PUSH1 0x0 PUSH1 0x20 DUP3 DUP5 SUB SLT ISZERO PUSH3 0x139 JUMPI PUSH1 0x0 DUP1 REVERT JUMPDEST DUP2 MLOAD PUSH1 0x1 PUSH1 0x1 PUSH1 0xA0 SHL SUB DUP2 AND DUP2 EQ PUSH3 0x151 JUMPI PUSH1 0x0 DUP1 REVERT JUMPDEST SWAP4 SWAP3 POP POP POP JUMP JUMPDEST PUSH1 0x80 MLOAD PUSH2 0x17BD PUSH3 0x1A5 PUSH1 0x0 CODECOPY PUSH1 0x0 DUP2 DUP2 PUSH2 0x195 ADD MSTORE DUP2 DUP2 PUSH2 0x50A ADD MSTORE DUP2 DUP2 PUSH2 0x70D ADD MSTORE DUP2 DUP2 PUSH2 0xB40 ADD MSTORE DUP2 DUP2 PUSH2 0xD37 ADD MSTORE DUP2 DUP2 PUSH2 0xEB3 ADD MSTORE DUP2 DUP2 PUSH2 0xFA7 ADD MSTORE PUSH2 0x110E ADD MSTORE PUSH2 0x17BD PUSH1 0x0 RETURN INVALID PUSH1 0x80 PUSH1 0x40 MSTORE CALLVALUE DUP1 ISZERO PUSH2 0x10 JUMPI PUSH1 0x0 DUP1 REVERT JUMPDEST POP PUSH1 0x4 CALLDATASIZE LT PUSH2 0x14D JUMPI PUSH1 0x0 CALLDATALOAD PUSH1 0xE0 SHR DUP1 PUSH4 0x7EEC20A8 GT PUSH2 0xC3 JUMPI DUP1 PUSH4 0xD0B7830B GT PUSH2 0x7C JUMPI DUP1 PUSH4 0xD0B7830B EQ PUSH2 0x305 JUMPI DUP1 PUSH4 0xD90583DF EQ PUSH2 0x30D JUMPI DUP1 PUSH4 0xE1A45218 EQ PUSH2 0x330 JUMPI DUP1 PUSH4 0xE75B2378 EQ PUSH2 0x339 JUMPI DUP1 PUSH4 0xF2FDE38B EQ PUSH2 0x34C JUMPI DUP1 PUSH4 0xF641FE39 EQ PUSH2 0x35F JUMPI PUSH1 0x0 DUP1 REVERT JUMPDEST DUP1 PUSH4 0x7EEC20A8 EQ PUSH2 0x244 JUMPI DUP1 PUSH4 0x80FD0FB3 EQ PUSH2 0x257 JUMPI DUP1 PUSH4 0x8456CB59 EQ PUSH2 0x26A JUMPI DUP1 PUSH4 0x8D977672 EQ PUSH2 0x272 JUMPI DUP1 PUSH4 0x8DA5CB5B EQ PUSH2 0x2E1 JUMPI DUP1 PUSH4 0xC14F7EA8 EQ PUSH2 0x2F2 JUMPI PUSH1 0x0 DUP1 REVERT JUMPDEST DUP1 PUSH4 0x58671730 GT PUSH2 0x115 JUMPI DUP1 PUSH4 0x58671730 EQ PUSH2 0x1EE JUMPI DUP1 PUSH4 0x5C975ABB EQ PUSH2 0x1F7 JUMPI DUP1 PUSH4 0x6893BD76 EQ PUSH2 0x20E JUMPI DUP1 PUSH4 0x6F9FB98A EQ PUSH2 0x221 JUMPI DUP1 PUSH4 0x715018A6 EQ PUSH2 0x229 JUMPI DUP1 PUSH4 0x7464A25B EQ PUSH2 0x231 JUMPI PUSH1 0x0 DUP1 REVERT JUMPDEST DUP1 PUSH4 0xFD6FC47 EQ PUSH2 0x152 JUMPI DUP1 PUSH4 0x1D65E77E EQ PUSH2 0x167 JUMPI DUP1 PUSH4 0x1FCCF672 EQ PUSH2 0x190 JUMPI DUP1 PUSH4 0x3F4BA83A EQ PUSH2 0x1CF JUMPI DUP1 PUSH4 0x539AA77F EQ PUSH2 0x1D7 JUMPI JUMPDEST PUSH1 0x0 DUP1 REVERT JUMPDEST PUSH2 0x165 PUSH2 0x160 CALLDATASIZE PUSH1 0x4 PUSH2 0x152A JUMP JUMPDEST PUSH2 0x368 JUMP JUMPDEST STOP JUMPDEST PUSH2 0x17A PUSH2 0x175 CALLDATASIZE PUSH1 0x4 PUSH2 0x152A JUMP JUMPDEST PUSH2 0x588 JUMP JUMPDEST PUSH1 0x40 MLOAD PUSH2 0x187 SWAP2 SWAP1 PUSH2 0x157B JUMP JUMPDEST PUSH1 0x40 MLOAD DUP1 SWAP2 SUB SWAP1 RETURN JUMPDEST PUSH2 0x1B7 PUSH32 0x0 DUP2 JUMP JUMPDEST PUSH1 0x40 MLOAD PUSH1 0x1 PUSH1 0x1 PUSH1 0xA0 SHL SUB SWAP1 SWAP2 AND DUP2 MSTORE PUSH1 0x20 ADD PUSH2 0x187 JUMP JUMPDEST PUSH2 0x165 PUSH2 0x699 JUMP JUMPDEST PUSH2 0x1E0 PUSH2 0x1F4 DUP2 JUMP JUMPDEST PUSH1 0x40 MLOAD SWAP1 DUP2 MSTORE PUSH1 0x20 ADD PUSH2 0x187 JUMP JUMPDEST PUSH2 0x1E0 PUSH1 0x4 SLOAD DUP2 JUMP JUMPDEST PUSH1 0x2 SLOAD PUSH1 0xFF AND JUMPDEST PUSH1 0x40 MLOAD SWAP1 ISZERO ISZERO DUP2 MSTORE PUSH1 0x20 ADD PUSH2 0x187 JUMP JUMPDEST PUSH2 0x1FE PUSH2 0x21C CALLDATASIZE PUSH1 0x4 PUSH2 0x152A JUMP JUMPDEST PUSH2 0x6AB JUMP JUMPDEST PUSH2 0x1E0 PUSH2 0x6F5 JUMP JUMPDEST PUSH2 0x165 PUSH2 0x785 JUMP JUMPDEST PUSH2 0x165 PUSH2 0x23F CALLDATASIZE PUSH1 0x4 PUSH2 0x15FC JUMP JUMPDEST PUSH2 0x797 JUMP JUMPDEST PUSH2 0x165 PUSH2 0x252 CALLDATASIZE PUSH1 0x4 PUSH2 0x152A JUMP JUMPDEST PUSH2 0xA0B JUMP JUMPDEST PUSH2 0x165 PUSH2 0x265 CALLDATASIZE PUSH1 0x4 PUSH2 0x152A JUMP JUMPDEST PUSH2 0xBC0 JUMP JUMPDEST PUSH2 0x165 PUSH2 0xDBE JUMP JUMPDEST PUSH2 0x2CE PUSH2 0x280 CALLDATASIZE PUSH1 0x4 PUSH2 0x152A JUMP JUMPDEST PUSH1 0x5 PUSH1 0x20 DUP2 SWAP1 MSTORE PUSH1 0x0 SWAP2 DUP3 MSTORE PUSH1 0x40 SWAP1 SWAP2 KECCAK256 DUP1 SLOAD PUSH1 0x1 DUP3 ADD SLOAD PUSH1 0x2 DUP4 ADD SLOAD PUSH1 0x3 DUP5 ADD SLOAD PUSH1 0x4 DUP6 ADD SLOAD SWAP6 DUP6 ADD SLOAD PUSH1 0x6 SWAP1 SWAP6 ADD SLOAD SWAP4 SWAP6 PUSH1 0x1 PUSH1 0x1 PUSH1 0xA0 SHL SUB SWAP4 DUP5 AND SWAP6 SWAP3 SWAP1 SWAP4 AND SWAP4 SWAP1 SWAP3 PUSH1 0xFF AND SWAP2 SWAP1 DUP8 JUMP JUMPDEST PUSH1 0x40 MLOAD PUSH2 0x187 SWAP8 SWAP7 SWAP6 SWAP5 SWAP4 SWAP3 SWAP2 SWAP1 PUSH2 0x1628 JUMP JUMPDEST PUSH1 0x0 SLOAD PUSH1 0x1 PUSH1 0x1 PUSH1 0xA0 SHL SUB AND PUSH2 0x1B7 JUMP JUMPDEST PUSH2 0x165 PUSH2 0x300 CALLDATASIZE PUSH1 0x4 PUSH2 0x152A JUMP JUMPDEST PUSH2 0xDCE JUMP JUMPDEST PUSH2 0x165 PUSH2 0xF2D JUMP JUMPDEST PUSH2 0x1FE PUSH2 0x31B CALLDATASIZE PUSH1 0x4 PUSH2 0x152A JUMP JUMPDEST PUSH1 0x6 PUSH1 0x20 MSTORE PUSH1 0x0 SWAP1 DUP2 MSTORE PUSH1 0x40 SWAP1 KECCAK256 SLOAD PUSH1 0xFF AND DUP2 JUMP JUMPDEST PUSH2 0x1E0 PUSH2 0x2710 DUP2 JUMP JUMPDEST PUSH2 0x1E0 PUSH2 0x347 CALLDATASIZE PUSH1 0x4 PUSH2 0x166F JUMP JUMPDEST PUSH2 0x1026 JUMP JUMPDEST PUSH2 0x165 PUSH2 0x35A CALLDATASIZE PUSH1 0x4 PUSH2 0x1691 JUMP JUMPDEST PUSH2 0x1266 JUMP JUMPDEST PUSH2 0x1E0 PUSH1 0x3 SLOAD DUP2 JUMP JUMPDEST PUSH1 0x0 DUP2 DUP2 MSTORE PUSH1 0x6 PUSH1 0x20 MSTORE PUSH1 0x40 SWAP1 KECCAK256 SLOAD DUP2 SWAP1 PUSH1 0xFF AND PUSH2 0x3A1 JUMPI PUSH1 0x40 MLOAD PUSH3 0x461BCD PUSH1 0xE5 SHL DUP2 MSTORE PUSH1 0x4 ADD PUSH2 0x398 SWAP1 PUSH2 0x16B3 JUMP JUMPDEST PUSH1 0x40 MLOAD DUP1 SWAP2 SUB SWAP1 REVERT JUMPDEST PUSH2 0x3A9 PUSH2 0x12A4 JUMP JUMPDEST PUSH1 0x0 DUP3 DUP2 MSTORE PUSH1 0x5 PUSH1 0x20 MSTORE PUSH1 0x40 SWAP1 KECCAK256 PUSH1 0x6 DUP2 ADD SLOAD TIMESTAMP LT ISZERO PUSH2 0x402 JUMPI PUSH1 0x40 MLOAD PUSH3 0x461BCD PUSH1 0xE5 SHL DUP2 MSTORE PUSH1 0x20 PUSH1 0x4 DUP3 ADD MSTORE PUSH1 0x14 PUSH1 0x24 DUP3 ADD MSTORE PUSH20 0x15185CDAC81B9BDD08195E1C1A5C9959081E595D PUSH1 0x62 SHL PUSH1 0x44 DUP3 ADD MSTORE PUSH1 0x64 ADD PUSH2 0x398 JUMP JUMPDEST PUSH1 0x0 PUSH1 0x4 DUP1 DUP4 ADD SLOAD PUSH1 0xFF AND SWAP1 DUP2 GT ISZERO PUSH2 0x41D JUMPI PUSH2 0x41D PUSH2 0x1543 JUMP JUMPDEST EQ DUP1 PUSH2 0x441 JUMPI POP PUSH1 0x1 PUSH1 0x4 DUP1 DUP4 ADD SLOAD PUSH1 0xFF AND SWAP1 DUP2 GT ISZERO PUSH2 0x43F JUMPI PUSH2 0x43F PUSH2 0x1543 JUMP JUMPDEST EQ JUMPDEST PUSH2 0x486 JUMPI PUSH1 0x40 MLOAD PUSH3 0x461BCD PUSH1 0xE5 SHL DUP2 MSTORE PUSH1 0x20 PUSH1 0x4 DUP3 ADD MSTORE PUSH1 0x16 PUSH1 0x24 DUP3 ADD MSTORE PUSH22 0x15185CDAC8185B1C9958591E48199A5B985B1A5E9959 PUSH1 0x52 SHL PUSH1 0x44 DUP3 ADD MSTORE PUSH1 0x64 ADD PUSH2 0x398 JUMP JUMPDEST PUSH1 0x1 DUP2 ADD SLOAD PUSH1 0x1 PUSH1 0x1 PUSH1 0xA0 SHL SUB AND CALLER EQ PUSH2 0x4E2 JUMPI PUSH1 0x40 MLOAD PUSH3 0x461BCD PUSH1 0xE5 SHL DUP2 MSTORE PUSH1 0x20 PUSH1 0x4 DUP3 ADD MSTORE PUSH1 0x18 PUSH1 0x24 DUP3 ADD MSTORE PUSH32 0x4F6E6C79207265717565737465722063616E20636C61696D0000000000000000 PUSH1 0x44 DUP3 ADD MSTORE PUSH1 0x64 ADD PUSH2 0x398 JUMP JUMPDEST PUSH1 0x3 DUP2 ADD SLOAD PUSH1 0x4 DUP1 DUP4 ADD DUP1 SLOAD PUSH1 0xFF NOT AND SWAP1 SWAP2 OR SWAP1 SSTORE PUSH1 0x1 DUP3 ADD SLOAD PUSH2 0x533 SWAP1 PUSH1 0x1 PUSH1 0x1 PUSH1 0xA0 SHL SUB PUSH32 0x0 DUP2 AND SWAP2 AND DUP4 PUSH2 0x12CE JUMP JUMPDEST PUSH1 0x1 DUP3 ADD SLOAD PUSH1 0x40 MLOAD DUP3 DUP2 MSTORE PUSH1 0x1 PUSH1 0x1 PUSH1 0xA0 SHL SUB SWAP1 SWAP2 AND SWAP1 DUP6 SWAP1 PUSH32 0xD845CEE2F655933A3B23C07031ECDF7210361D2F8B5C56EFC1AED356408436F4 SWAP1 PUSH1 0x20 ADD PUSH1 0x40 MLOAD DUP1 SWAP2 SUB SWAP1 LOG3 POP POP PUSH2 0x584 PUSH1 0x1 DUP1 SSTORE JUMP JUMPDEST POP POP JUMP JUMPDEST PUSH2 0x5C8 PUSH1 0x40 DUP1 MLOAD PUSH1 0xE0 DUP2 ADD DUP3 MSTORE PUSH1 0x0 DUP1 DUP3 MSTORE PUSH1 0x20 DUP3 ADD DUP2 SWAP1 MSTORE SWAP2 DUP2 ADD DUP3 SWAP1 MSTORE PUSH1 0x60 DUP2 ADD DUP3 SWAP1 MSTORE SWAP1 PUSH1 0x80 DUP3 ADD SWAP1 DUP2 MSTORE PUSH1 0x20 ADD PUSH1 0x0 DUP2 MSTORE PUSH1 0x20 ADD PUSH1 0x0 DUP2 MSTORE POP SWAP1 JUMP JUMPDEST PUSH1 0x0 DUP3 DUP2 MSTORE PUSH1 0x6 PUSH1 0x20 MSTORE PUSH1 0x40 SWAP1 KECCAK256 SLOAD DUP3 SWAP1 PUSH1 0xFF AND PUSH2 0x5F8 JUMPI PUSH1 0x40 MLOAD PUSH3 0x461BCD PUSH1 0xE5 SHL DUP2 MSTORE PUSH1 0x4 ADD PUSH2 0x398 SWAP1 PUSH2 0x16B3 JUMP JUMPDEST PUSH1 0x0 DUP4 DUP2 MSTORE PUSH1 0x5 PUSH1 0x20 SWAP1 DUP2 MSTORE PUSH1 0x40 SWAP2 DUP3 SWAP1 KECCAK256 DUP3 MLOAD PUSH1 0xE0 DUP2 ADD DUP5 MSTORE DUP2 SLOAD DUP2 MSTORE PUSH1 0x1 DUP3 ADD SLOAD PUSH1 0x1 PUSH1 0x1 PUSH1 0xA0 SHL SUB SWAP1 DUP2 AND SWAP4 DUP3 ADD SWAP4 SWAP1 SWAP4 MSTORE PUSH1 0x2 DUP3 ADD SLOAD SWAP1 SWAP3 AND SWAP3 DUP3 ADD SWAP3 SWAP1 SWAP3 MSTORE PUSH1 0x3 DUP3 ADD SLOAD PUSH1 0x60 DUP3 ADD MSTORE PUSH1 0x4 DUP1 DUP4 ADD SLOAD SWAP2 SWAP3 SWAP2 PUSH1 0x80 DUP5 ADD SWAP2 PUSH1 0xFF SWAP1 SWAP2 AND SWAP1 DUP2 GT ISZERO PUSH2 0x669 JUMPI PUSH2 0x669 PUSH2 0x1543 JUMP JUMPDEST PUSH1 0x4 DUP2 GT ISZERO PUSH2 0x67A JUMPI PUSH2 0x67A PUSH2 0x1543 JUMP JUMPDEST DUP2 MSTORE PUSH1 0x5 DUP3 ADD SLOAD PUSH1 0x20 DUP3 ADD MSTORE PUSH1 0x6 SWAP1 SWAP2 ADD SLOAD PUSH1 0x40 SWAP1 SWAP2 ADD MSTORE SWAP4 SWAP3 POP POP POP JUMP JUMPDEST PUSH2 0x6A1 PUSH2 0x132D JUMP JUMPDEST PUSH2 0x6A9 PUSH2 0x135A JUMP JUMPDEST JUMP JUMPDEST PUSH1 0x0 DUP2 DUP2 MSTORE PUSH1 0x6 PUSH1 0x20 MSTORE PUSH1 0x40 DUP2 KECCAK256 SLOAD DUP3 SWAP1 PUSH1 0xFF AND PUSH2 0x6DB JUMPI PUSH1 0x40 MLOAD PUSH3 0x461BCD PUSH1 0xE5 SHL DUP2 MSTORE PUSH1 0x4 ADD PUSH2 0x398 SWAP1 PUSH2 0x16B3 JUMP JUMPDEST POP POP PUSH1 0x0 SWAP1 DUP2 MSTORE PUSH1 0x5 PUSH1 0x20 MSTORE PUSH1 0x40 SWAP1 KECCAK256 PUSH1 0x6 ADD SLOAD TIMESTAMP LT ISZERO SWAP1 JUMP JUMPDEST PUSH1 0x40 MLOAD PUSH4 0x70A08231 PUSH1 0xE0 SHL DUP2 MSTORE ADDRESS PUSH1 0x4 DUP3 ADD MSTORE PUSH1 0x0 SWAP1 PUSH32 0x0 PUSH1 0x1 PUSH1 0x1 PUSH1 0xA0 SHL SUB AND SWAP1 PUSH4 0x70A08231 SWAP1 PUSH1 0x24 ADD PUSH1 0x20 PUSH1 0x40 MLOAD DUP1 DUP4 SUB DUP2 DUP7 GAS STATICCALL ISZERO DUP1 ISZERO PUSH2 0x75C JUMPI RETURNDATASIZE PUSH1 0x0 DUP1 RETURNDATACOPY RETURNDATASIZE PUSH1 0x0 REVERT JUMPDEST POP POP POP POP PUSH1 0x40 MLOAD RETURNDATASIZE PUSH1 0x1F NOT PUSH1 0x1F DUP3 ADD AND DUP3 ADD DUP1 PUSH1 0x40 MSTORE POP DUP2 ADD SWAP1 PUSH2 0x780 SWAP2 SWAP1 PUSH2 0x16E0 JUMP JUMPDEST SWAP1 POP SWAP1 JUMP JUMPDEST PUSH2 0x78D PUSH2 0x132D JUMP JUMPDEST PUSH2 0x6A9 PUSH1 0x0 PUSH2 0x13AC JUMP JUMPDEST PUSH1 0x0 DUP3 DUP2 MSTORE PUSH1 0x6 PUSH1 0x20 MSTORE PUSH1 0x40 SWAP1 KECCAK256 SLOAD DUP3 SWAP1 PUSH1 0xFF AND PUSH2 0x7C7 JUMPI PUSH1 0x40 MLOAD PUSH3 0x461BCD PUSH1 0xE5 SHL DUP2 MSTORE PUSH1 0x4 ADD PUSH2 0x398 SWAP1 PUSH2 0x16B3 JUMP JUMPDEST DUP3 PUSH1 0x0 DUP1 DUP3 DUP2 MSTORE PUSH1 0x5 PUSH1 0x20 MSTORE PUSH1 0x40 SWAP1 KECCAK256 PUSH1 0x4 SWAP1 DUP2 ADD SLOAD PUSH1 0xFF AND SWAP1 DUP2 GT ISZERO PUSH2 0x7F0 JUMPI PUSH2 0x7F0 PUSH2 0x1543 JUMP JUMPDEST EQ PUSH2 0x82D JUMPI PUSH1 0x40 MLOAD PUSH3 0x461BCD PUSH1 0xE5 SHL DUP2 MSTORE PUSH1 0x20 PUSH1 0x4 DUP3 ADD MSTORE PUSH1 0xD PUSH1 0x24 DUP3 ADD MSTORE PUSH13 0x2A30B9B5903737BA1037B832B7 PUSH1 0x99 SHL PUSH1 0x44 DUP3 ADD MSTORE PUSH1 0x64 ADD PUSH2 0x398 JUMP JUMPDEST PUSH1 0x0 DUP5 DUP2 MSTORE PUSH1 0x5 PUSH1 0x20 MSTORE PUSH1 0x40 SWAP1 KECCAK256 PUSH1 0x6 ADD SLOAD DUP5 SWAP1 TIMESTAMP LT PUSH2 0x87E JUMPI PUSH1 0x40 MLOAD PUSH3 0x461BCD PUSH1 0xE5 SHL DUP2 MSTORE PUSH1 0x20 PUSH1 0x4 DUP3 ADD MSTORE PUSH1 0xC PUSH1 0x24 DUP3 ADD MSTORE PUSH12 0x15185CDAC8195E1C1A5C9959 PUSH1 0xA2 SHL PUSH1 0x44 DUP3 ADD MSTORE PUSH1 0x64 ADD PUSH2 0x398 JUMP JUMPDEST PUSH1 0x0 DUP6 DUP2 MSTORE PUSH1 0x5 PUSH1 0x20 MSTORE PUSH1 0x40 SWAP1 KECCAK256 PUSH1 0x1 ADD SLOAD DUP6 SWAP1 PUSH1 0x1 PUSH1 0x1 PUSH1 0xA0 SHL SUB AND CALLER EQ PUSH2 0x8DE JUMPI PUSH1 0x40 MLOAD PUSH3 0x461BCD PUSH1 0xE5 SHL DUP2 MSTORE PUSH1 0x20 PUSH1 0x4 DUP3 ADD MSTORE PUSH1 0x12 PUSH1 0x24 DUP3 ADD MSTORE PUSH18 0x2737BA103A30B9B5903932B8BAB2B9BA32B9 PUSH1 0x71 SHL PUSH1 0x44 DUP3 ADD MSTORE PUSH1 0x64 ADD PUSH2 0x398 JUMP JUMPDEST PUSH1 0x1 PUSH1 0x1 PUSH1 0xA0 SHL SUB DUP6 AND PUSH2 0x92D JUMPI PUSH1 0x40 MLOAD PUSH3 0x461BCD PUSH1 0xE5 SHL DUP2 MSTORE PUSH1 0x20 PUSH1 0x4 DUP3 ADD MSTORE PUSH1 0x16 PUSH1 0x24 DUP3 ADD MSTORE PUSH22 0x496E76616C696420776F726B65722061646472657373 PUSH1 0x50 SHL PUSH1 0x44 DUP3 ADD MSTORE PUSH1 0x64 ADD PUSH2 0x398 JUMP JUMPDEST PUSH1 0x0 DUP7 DUP2 MSTORE PUSH1 0x5 PUSH1 0x20 MSTORE PUSH1 0x40 SWAP1 KECCAK256 PUSH1 0x1 ADD SLOAD PUSH1 0x1 PUSH1 0x1 PUSH1 0xA0 SHL SUB SWAP1 DUP2 AND SWAP1 DUP7 AND SUB PUSH2 0x99A JUMPI PUSH1 0x40 MLOAD PUSH3 0x461BCD PUSH1 0xE5 SHL DUP2 MSTORE PUSH1 0x20 PUSH1 0x4 DUP3 ADD MSTORE PUSH1 0x1A PUSH1 0x24 DUP3 ADD MSTORE PUSH32 0x5265717565737465722063616E6E6F7420626520776F726B6572000000000000 PUSH1 0x44 DUP3 ADD MSTORE PUSH1 0x64 ADD PUSH2 0x398 JUMP JUMPDEST PUSH1 0x0 DUP7 DUP2 MSTORE PUSH1 0x5 PUSH1 0x20 MSTORE PUSH1 0x40 DUP1 DUP3 KECCAK256 PUSH1 0x2 DUP2 ADD DUP1 SLOAD PUSH1 0x1 PUSH1 0x1 PUSH1 0xA0 SHL SUB NOT AND PUSH1 0x1 PUSH1 0x1 PUSH1 0xA0 SHL SUB DUP11 AND SWAP1 DUP2 OR SWAP1 SWAP2 SSTORE PUSH1 0x4 SWAP1 SWAP2 ADD DUP1 SLOAD PUSH1 0xFF NOT AND PUSH1 0x1 OR SWAP1 SSTORE SWAP1 MLOAD SWAP1 SWAP2 DUP9 SWAP2 PUSH32 0x5A947A7963F521BDB91D091674DCEDD326F71C169B636D55FBBEE5704ADEB976 SWAP2 SWAP1 LOG3 POP POP POP POP POP POP JUMP JUMPDEST PUSH1 0x0 DUP2 DUP2 MSTORE PUSH1 0x6 PUSH1 0x20 MSTORE PUSH1 0x40 SWAP1 KECCAK256 SLOAD DUP2 SWAP1 PUSH1 0xFF AND PUSH2 0xA3B JUMPI PUSH1 0x40 MLOAD PUSH3 0x461BCD PUSH1 0xE5 SHL DUP2 MSTORE PUSH1 0x4 ADD PUSH2 0x398 SWAP1 PUSH2 0x16B3 JUMP JUMPDEST DUP2 PUSH1 0x0 DUP1 DUP3 DUP2 MSTORE PUSH1 0x5 PUSH1 0x20 MSTORE PUSH1 0x40 SWAP1 KECCAK256 PUSH1 0x4 SWAP1 DUP2 ADD SLOAD PUSH1 0xFF AND SWAP1 DUP2 GT ISZERO PUSH2 0xA64 JUMPI PUSH2 0xA64 PUSH2 0x1543 JUMP JUMPDEST EQ PUSH2 0xAA1 JUMPI PUSH1 0x40 MLOAD PUSH3 0x461BCD PUSH1 0xE5 SHL DUP2 MSTORE PUSH1 0x20 PUSH1 0x4 DUP3 ADD MSTORE PUSH1 0xD PUSH1 0x24 DUP3 ADD MSTORE PUSH13 0x2A30B9B5903737BA1037B832B7 PUSH1 0x99 SHL PUSH1 0x44 DUP3 ADD MSTORE PUSH1 0x64 ADD PUSH2 0x398 JUMP JUMPDEST PUSH1 0x0 DUP4 DUP2 MSTORE PUSH1 0x5 PUSH1 0x20 MSTORE PUSH1 0x40 SWAP1 KECCAK256 PUSH1 0x1 ADD SLOAD DUP4 SWAP1 PUSH1 0x1 PUSH1 0x1 PUSH1 0xA0 SHL SUB AND CALLER EQ PUSH2 0xB01 JUMPI PUSH1 0x40 MLOAD PUSH3 0x461BCD PUSH1 0xE5 SHL DUP2 MSTORE PUSH1 0x20 PUSH1 0x4 DUP3 ADD MSTORE PUSH1 0x12 PUSH1 0x24 DUP3 ADD MSTORE PUSH18 0x2737BA103A30B9B5903932B8BAB2B9BA32B9 PUSH1 0x71 SHL PUSH1 0x44 DUP3 ADD MSTORE PUSH1 0x64 ADD PUSH2 0x398 JUMP JUMPDEST PUSH2 0xB09 PUSH2 0x12A4 JUMP JUMPDEST PUSH1 0x0 DUP5 DUP2 MSTORE PUSH1 0x5 PUSH1 0x20 MSTORE PUSH1 0x40 SWAP1 KECCAK256 PUSH1 0x3 DUP1 DUP3 ADD SLOAD PUSH1 0x4 DUP4 ADD DUP1 SLOAD PUSH1 0xFF NOT AND SWAP1 SWAP3 OR SWAP1 SWAP2 SSTORE PUSH1 0x1 DUP3 ADD SLOAD PUSH2 0xB69 SWAP1 PUSH1 0x1 PUSH1 0x1 PUSH1 0xA0 SHL SUB PUSH32 0x0 DUP2 AND SWAP2 AND DUP4 PUSH2 0x12CE JUMP JUMPDEST PUSH1 0x1 DUP3 ADD SLOAD PUSH1 0x40 MLOAD DUP3 DUP2 MSTORE PUSH1 0x1 PUSH1 0x1 PUSH1 0xA0 SHL SUB SWAP1 SWAP2 AND SWAP1 DUP8 SWAP1 PUSH32 0x6F63D695245E4CF8F0B7AAE0B8DA95876A4B173BA8D0D4466CC83C357DDA3A8 SWAP1 PUSH1 0x20 ADD PUSH1 0x40 MLOAD DUP1 SWAP2 SUB SWAP1 LOG3 POP POP PUSH2 0xBBA PUSH1 0x1 DUP1 SSTORE JUMP JUMPDEST POP POP POP POP JUMP JUMPDEST PUSH1 0x0 DUP2 DUP2 MSTORE PUSH1 0x6 PUSH1 0x20 MSTORE PUSH1 0x40 SWAP1 KECCAK256 SLOAD DUP2 SWAP1 PUSH1 0xFF AND PUSH2 0xBF0 JUMPI PUSH1 0x40 MLOAD PUSH3 0x461BCD PUSH1 0xE5 SHL DUP2 MSTORE PUSH1 0x4 ADD PUSH2 0x398 SWAP1 PUSH2 0x16B3 JUMP JUMPDEST DUP2 PUSH1 0x1 PUSH1 0x0 DUP3 DUP2 MSTORE PUSH1 0x5 PUSH1 0x20 MSTORE PUSH1 0x40 SWAP1 KECCAK256 PUSH1 0x4 SWAP1 DUP2 ADD SLOAD PUSH1 0xFF AND SWAP1 DUP2 GT ISZERO PUSH2 0xC1A JUMPI PUSH2 0xC1A PUSH2 0x1543 JUMP JUMPDEST EQ PUSH2 0xC5E JUMPI PUSH1 0x40 MLOAD PUSH3 0x461BCD PUSH1 0xE5 SHL DUP2 MSTORE PUSH1 0x20 PUSH1 0x4 DUP3 ADD MSTORE PUSH1 0x14 PUSH1 0x24 DUP3 ADD MSTORE PUSH20 0x5461736B206E6F7420696E2070726F6772657373 PUSH1 0x60 SHL PUSH1 0x44 DUP3 ADD MSTORE PUSH1 0x64 ADD PUSH2 0x398 JUMP JUMPDEST PUSH2 0xC66 PUSH2 0x132D JUMP JUMPDEST PUSH2 0xC6E PUSH2 0x12A4 JUMP JUMPDEST PUSH1 0x0 DUP4 DUP2 MSTORE PUSH1 0x5 PUSH1 0x20 MSTORE PUSH1 0x40 SWAP1 KECCAK256 PUSH1 0x2 DUP2 ADD SLOAD PUSH1 0x1 PUSH1 0x1 PUSH1 0xA0 SHL SUB AND PUSH2 0xCCB JUMPI PUSH1 0x40 MLOAD PUSH3 0x461BCD PUSH1 0xE5 SHL DUP2 MSTORE PUSH1 0x20 PUSH1 0x4 DUP3 ADD MSTORE PUSH1 0x12 PUSH1 0x24 DUP3 ADD MSTORE PUSH18 0x139BC81DDBDC9AD95C88185CDCDA59DB9959 PUSH1 0x72 SHL PUSH1 0x44 DUP3 ADD MSTORE PUSH1 0x64 ADD PUSH2 0x398 JUMP JUMPDEST PUSH1 0x3 DUP2 ADD SLOAD PUSH1 0x0 PUSH2 0x2710 PUSH2 0xCE1 PUSH2 0x1F4 DUP5 PUSH2 0x170F JUMP JUMPDEST PUSH2 0xCEB SWAP2 SWAP1 PUSH2 0x1726 JUMP JUMPDEST SWAP1 POP PUSH1 0x0 PUSH2 0xCF9 DUP3 DUP5 PUSH2 0x1748 JUMP JUMPDEST PUSH1 0x4 DUP6 ADD DUP1 SLOAD PUSH1 0xFF NOT AND PUSH1 0x2 OR SWAP1 SSTORE PUSH1 0x3 DUP1 SLOAD SWAP2 SWAP3 POP DUP4 SWAP2 PUSH1 0x0 SWAP1 PUSH2 0xD1F SWAP1 DUP5 SWAP1 PUSH2 0x175B JUMP JUMPDEST SWAP1 SWAP2 SSTORE POP POP PUSH1 0x2 DUP5 ADD SLOAD PUSH2 0xD60 SWAP1 PUSH1 0x1 PUSH1 0x1 PUSH1 0xA0 SHL SUB PUSH32 0x0 DUP2 AND SWAP2 AND DUP4 PUSH2 0x12CE JUMP JUMPDEST PUSH1 0x2 DUP5 ADD SLOAD PUSH1 0x40 DUP1 MLOAD DUP4 DUP2 MSTORE PUSH1 0x20 DUP2 ADD DUP6 SWAP1 MSTORE PUSH1 0x1 PUSH1 0x1 PUSH1 0xA0 SHL SUB SWAP1 SWAP3 AND SWAP2 DUP10 SWAP2 PUSH32 0x8CDC8DC08E54A4E57F52077ECF1B4C508758513439CAE2AA325DCC85B922FCA8 SWAP2 ADD PUSH1 0x40 MLOAD DUP1 SWAP2 SUB SWAP1 LOG3 POP POP POP POP PUSH2 0xDB9 PUSH1 0x1 DUP1 SSTORE JUMP JUMPDEST POP POP POP JUMP JUMPDEST PUSH2 0xDC6 PUSH2 0x132D JUMP JUMPDEST PUSH2 0x6A9 PUSH2 0x13FC JUMP JUMPDEST PUSH1 0x0 DUP2 DUP2 MSTORE PUSH1 0x6 PUSH1 0x20 MSTORE PUSH1 0x40 SWAP1 KECCAK256 SLOAD DUP2 SWAP1 PUSH1 0xFF AND PUSH2 0xDFE JUMPI PUSH1 0x40 MLOAD PUSH3 0x461BCD PUSH1 0xE5 SHL DUP2 MSTORE PUSH1 0x4 ADD PUSH2 0x398 SWAP1 PUSH2 0x16B3 JUMP JUMPDEST DUP2 PUSH1 0x1 PUSH1 0x0 DUP3 DUP2 MSTORE PUSH1 0x5 PUSH1 0x20 MSTORE PUSH1 0x40 SWAP1 KECCAK256 PUSH1 0x4 SWAP1 DUP2 ADD SLOAD PUSH1 0xFF AND SWAP1 DUP2 GT ISZERO PUSH2 0xE28 JUMPI PUSH2 0xE28 PUSH2 0x1543 JUMP JUMPDEST EQ PUSH2 0xE6C JUMPI PUSH1 0x40 MLOAD PUSH3 0x461BCD PUSH1 0xE5 SHL DUP2 MSTORE PUSH1 0x20 PUSH1 0x4 DUP3 ADD MSTORE PUSH1 0x14 PUSH1 0x24 DUP3 ADD MSTORE PUSH20 0x5461736B206E6F7420696E2070726F6772657373 PUSH1 0x60 SHL PUSH1 0x44 DUP3 ADD MSTORE PUSH1 0x64 ADD PUSH2 0x398 JUMP JUMPDEST PUSH2 0xE74 PUSH2 0x132D JUMP JUMPDEST PUSH2 0xE7C PUSH2 0x12A4 JUMP JUMPDEST PUSH1 0x0 DUP4 DUP2 MSTORE PUSH1 0x5 PUSH1 0x20 MSTORE PUSH1 0x40 SWAP1 KECCAK256 PUSH1 0x3 DUP1 DUP3 ADD SLOAD PUSH1 0x4 DUP4 ADD DUP1 SLOAD PUSH1 0xFF NOT AND SWAP1 SWAP3 OR SWAP1 SWAP2 SSTORE PUSH1 0x1 DUP3 ADD SLOAD PUSH2 0xEDC SWAP1 PUSH1 0x1 PUSH1 0x1 PUSH1 0xA0 SHL SUB PUSH32 0x0 DUP2 AND SWAP2 AND DUP4 PUSH2 0x12CE JUMP JUMPDEST PUSH1 0x1 DUP3 ADD SLOAD PUSH1 0x40 MLOAD DUP3 DUP2 MSTORE PUSH1 0x1 PUSH1 0x1 PUSH1 0xA0 SHL SUB SWAP1 SWAP2 AND SWAP1 DUP7 SWAP1 PUSH32 0x6F63D695245E4CF8F0B7AAE0B8DA95876A4B173BA8D0D4466CC83C357DDA3A8 SWAP1 PUSH1 0x20 ADD PUSH1 0x40 MLOAD DUP1 SWAP2 SUB SWAP1 LOG3 POP POP PUSH2 0xDB9 PUSH1 0x1 DUP1 SSTORE JUMP JUMPDEST PUSH2 0xF35 PUSH2 0x132D JUMP JUMPDEST PUSH2 0xF3D PUSH2 0x12A4 JUMP JUMPDEST PUSH1 0x3 SLOAD DUP1 PUSH2 0xF83 JUMPI PUSH1 0x40 MLOAD PUSH3 0x461BCD PUSH1 0xE5 SHL DUP2 MSTORE PUSH1 0x20 PUSH1 0x4 DUP3 ADD MSTORE PUSH1 0x13 PUSH1 0x24 DUP3 ADD MSTORE PUSH19 0x4E6F206665657320746F207769746864726177 PUSH1 0x68 SHL PUSH1 0x44 DUP3 ADD MSTORE PUSH1 0x64 ADD PUSH2 0x398 JUMP JUMPDEST PUSH1 0x0 PUSH1 0x3 SSTORE PUSH2 0xFCE PUSH2 0xF9D PUSH1 0x0 SLOAD PUSH1 0x1 PUSH1 0x1 PUSH1 0xA0 SHL SUB AND SWAP1 JUMP JUMPDEST PUSH1 0x1 PUSH1 0x1 PUSH1 0xA0 SHL SUB PUSH32 0x0 AND SWAP1 DUP4 PUSH2 0x12CE JUMP JUMPDEST PUSH1 0x0 SLOAD PUSH1 0x1 PUSH1 0x1 PUSH1 0xA0 SHL SUB AND PUSH1 0x1 PUSH1 0x1 PUSH1 0xA0 SHL SUB AND PUSH32 0xFC7AD544FF6A06D6499925723D25B6FE70457A42939995B1D3D6F560FE336333 DUP3 PUSH1 0x40 MLOAD PUSH2 0x1014 SWAP2 DUP2 MSTORE PUSH1 0x20 ADD SWAP1 JUMP JUMPDEST PUSH1 0x40 MLOAD DUP1 SWAP2 SUB SWAP1 LOG2 POP PUSH2 0x6A9 PUSH1 0x1 DUP1 SSTORE JUMP JUMPDEST PUSH1 0x0 PUSH2 0x1030 PUSH2 0x1439 JUMP JUMPDEST PUSH2 0x1038 PUSH2 0x12A4 JUMP JUMPDEST PUSH1 0x0 DUP4 GT PUSH2 0x107E JUMPI PUSH1 0x40 MLOAD PUSH3 0x461BCD PUSH1 0xE5 SHL DUP2 MSTORE PUSH1 0x20 PUSH1 0x4 DUP3 ADD MSTORE PUSH1 0x13 PUSH1 0x24 DUP3 ADD MSTORE PUSH19 0x5061796D656E74206D757374206265203E203 PUSH1 0x6C SHL PUSH1 0x44 DUP3 ADD MSTORE PUSH1 0x64 ADD PUSH2 0x398 JUMP JUMPDEST PUSH1 0x0 DUP3 GT DUP1 ISZERO PUSH2 0x108F JUMPI POP PUSH1 0x5A DUP3 GT ISZERO JUMPDEST PUSH2 0x10CE JUMPI PUSH1 0x40 MLOAD PUSH3 0x461BCD PUSH1 0xE5 SHL DUP2 MSTORE PUSH1 0x20 PUSH1 0x4 DUP3 ADD MSTORE PUSH1 0x10 PUSH1 0x24 DUP3 ADD MSTORE PUSH16 0x24B73B30B634B210323AB930BA34B7B7 PUSH1 0x81 SHL PUSH1 0x44 DUP3 ADD MSTORE PUSH1 0x64 ADD PUSH2 0x398 JUMP JUMPDEST PUSH1 0x4 DUP1 SLOAD SWAP1 PUSH1 0x0 PUSH2 0x10DE DUP4 PUSH2 0x176E JUMP JUMPDEST SWAP1 SWAP2 SSTORE POP POP PUSH1 0x4 SLOAD PUSH1 0x0 PUSH2 0x10F5 DUP5 PUSH3 0x15180 PUSH2 0x170F JUMP JUMPDEST PUSH2 0x10FF SWAP1 TIMESTAMP PUSH2 0x175B JUMP JUMPDEST SWAP1 POP PUSH2 0x1136 PUSH1 0x1 PUSH1 0x1 PUSH1 0xA0 SHL SUB PUSH32 0x0 AND CALLER ADDRESS DUP9 PUSH2 0x145D JUMP JUMPDEST PUSH1 0x40 DUP1 MLOAD PUSH1 0xE0 DUP2 ADD DUP3 MSTORE DUP4 DUP2 MSTORE CALLER PUSH1 0x20 DUP1 DUP4 ADD SWAP2 DUP3 MSTORE PUSH1 0x0 DUP4 DUP6 ADD DUP2 DUP2 MSTORE PUSH1 0x60 DUP6 ADD DUP12 DUP2 MSTORE PUSH1 0x80 DUP7 ADD DUP4 DUP2 MSTORE TIMESTAMP PUSH1 0xA0 DUP9 ADD MSTORE PUSH1 0xC0 DUP8 ADD DUP10 SWAP1 MSTORE DUP10 DUP5 MSTORE PUSH1 0x5 SWAP1 SWAP5 MSTORE SWAP6 SWAP1 SWAP2 KECCAK256 DUP5 MLOAD DUP2 SSTORE SWAP3 MLOAD PUSH1 0x1 DUP1 DUP6 ADD DUP1 SLOAD PUSH1 0x1 PUSH1 0x1 PUSH1 0xA0 SHL SUB NOT SWAP1 DUP2 AND PUSH1 0x1 PUSH1 0x1 PUSH1 0xA0 SHL SUB SWAP5 DUP6 AND OR SWAP1 SWAP2 SSTORE SWAP3 MLOAD PUSH1 0x2 DUP7 ADD DUP1 SLOAD SWAP1 SWAP5 AND SWAP3 AND SWAP2 SWAP1 SWAP2 OR SWAP1 SWAP2 SSTORE SWAP4 MLOAD PUSH1 0x3 DUP4 ADD SSTORE MLOAD PUSH1 0x4 DUP1 DUP4 ADD DUP1 SLOAD SWAP5 SWAP6 SWAP4 SWAP5 SWAP3 SWAP4 SWAP1 SWAP3 PUSH1 0xFF NOT AND SWAP2 DUP5 SWAP1 DUP2 GT ISZERO PUSH2 0x11E4 JUMPI PUSH2 0x11E4 PUSH2 0x1543 JUMP JUMPDEST MUL OR SWAP1 SSTORE POP PUSH1 0xA0 DUP3 ADD MLOAD PUSH1 0x5 DUP3 ADD SSTORE PUSH1 0xC0 SWAP1 SWAP2 ADD MLOAD PUSH1 0x6 SWAP2 DUP3 ADD SSTORE PUSH1 0x0 DUP4 DUP2 MSTORE PUSH1 0x20 SWAP2 DUP3 MSTORE PUSH1 0x40 SWAP1 DUP2 SWAP1 KECCAK256 DUP1 SLOAD PUSH1 0xFF NOT AND PUSH1 0x1 OR SWAP1 SSTORE DUP1 MLOAD DUP8 DUP2 MSTORE SWAP2 DUP3 ADD DUP4 SWAP1 MSTORE CALLER SWAP2 DUP5 SWAP2 PUSH32 0xF5AC772F880DC6ED6B50DB24E062BBC51818E270ED47533FD9162E5255FA2913 SWAP2 ADD PUSH1 0x40 MLOAD DUP1 SWAP2 SUB SWAP1 LOG3 POP SWAP1 POP PUSH2 0x1260 PUSH1 0x1 DUP1 SSTORE JUMP JUMPDEST SWAP3 SWAP2 POP POP JUMP JUMPDEST PUSH2 0x126E PUSH2 0x132D JUMP JUMPDEST PUSH1 0x1 PUSH1 0x1 PUSH1 0xA0 SHL SUB DUP2 AND PUSH2 0x1298 JUMPI PUSH1 0x40 MLOAD PUSH4 0x1E4FBDF7 PUSH1 0xE0 SHL DUP2 MSTORE PUSH1 0x0 PUSH1 0x4 DUP3 ADD MSTORE PUSH1 0x24 ADD PUSH2 0x398 JUMP JUMPDEST PUSH2 0x12A1 DUP2 PUSH2 0x13AC JUMP JUMPDEST POP JUMP JUMPDEST PUSH1 0x2 PUSH1 0x1 SLOAD SUB PUSH2 0x12C7 JUMPI PUSH1 0x40 MLOAD PUSH4 0x3EE5AEB5 PUSH1 0xE0 SHL DUP2 MSTORE PUSH1 0x4 ADD PUSH1 0x40 MLOAD DUP1 SWAP2 SUB SWAP1 REVERT JUMPDEST PUSH1 0x2 PUSH1 0x1 SSTORE JUMP JUMPDEST PUSH1 0x40 MLOAD PUSH1 0x1 PUSH1 0x1 PUSH1 0xA0 SHL SUB DUP4 DUP2 AND PUSH1 0x24 DUP4 ADD MSTORE PUSH1 0x44 DUP3 ADD DUP4 SWAP1 MSTORE PUSH2 0xDB9 SWAP2 DUP6 SWAP2 DUP3 AND SWAP1 PUSH4 0xA9059CBB SWAP1 PUSH1 0x64 ADD JUMPDEST PUSH1 0x40 MLOAD PUSH1 0x20 DUP2 DUP4 SUB SUB DUP2 MSTORE SWAP1 PUSH1 0x40 MSTORE SWAP2 POP PUSH1 0xE0 SHL PUSH1 0x20 DUP3 ADD DUP1 MLOAD PUSH1 0x1 PUSH1 0x1 PUSH1 0xE0 SHL SUB DUP4 DUP2 DUP4 AND OR DUP4 MSTORE POP POP POP POP PUSH2 0x1496 JUMP JUMPDEST PUSH1 0x0 SLOAD PUSH1 0x1 PUSH1 0x1 PUSH1 0xA0 SHL SUB AND CALLER EQ PUSH2 0x6A9 JUMPI PUSH1 0x40 MLOAD PUSH4 0x118CDAA7 PUSH1 0xE0 SHL DUP2 MSTORE CALLER PUSH1 0x4 DUP3 ADD MSTORE PUSH1 0x24 ADD PUSH2 0x398 JUMP JUMPDEST PUSH2 0x1362 PUSH2 0x1507 JUMP JUMPDEST PUSH1 0x2 DUP1 SLOAD PUSH1 0xFF NOT AND SWAP1 SSTORE PUSH32 0x5DB9EE0A495BF2E6FF9C91A7834C1BA4FDD244A5E8AA4E537BD38AEAE4B073AA CALLER JUMPDEST PUSH1 0x40 MLOAD PUSH1 0x1 PUSH1 0x1 PUSH1 0xA0 SHL SUB SWAP1 SWAP2 AND DUP2 MSTORE PUSH1 0x20 ADD PUSH1 0x40 MLOAD DUP1 SWAP2 SUB SWAP1 LOG1 JUMP JUMPDEST PUSH1 0x0 DUP1 SLOAD PUSH1 0x1 PUSH1 0x1 PUSH1 0xA0 SHL SUB DUP4 DUP2 AND PUSH1 0x1 PUSH1 0x1 PUSH1 0xA0 SHL SUB NOT DUP4 AND DUP2 OR DUP5 SSTORE PUSH1 0x40 MLOAD SWAP2 SWAP1 SWAP3 AND SWAP3 DUP4 SWAP2 PUSH32 0x8BE0079C531659141344CD1FD0A4F28419497F9722A3DAAFE3B4186F6B6457E0 SWAP2 SWAP1 LOG3 POP POP JUMP JUMPDEST PUSH2 0x1404 PUSH2 0x1439 JUMP JUMPDEST PUSH1 0x2 DUP1 SLOAD PUSH1 0xFF NOT AND PUSH1 0x1 OR SWAP1 SSTORE PUSH32 0x62E78CEA01BEE320CD4E420270B5EA74000D11B0C9F74754EBDBFC544B05A258 PUSH2 0x138F CALLER SWAP1 JUMP JUMPDEST PUSH1 0x2 SLOAD PUSH1 0xFF AND ISZERO PUSH2 0x6A9 JUMPI PUSH1 0x40 MLOAD PUSH4 0xD93C0665 PUSH1 0xE0 SHL DUP2 MSTORE PUSH1 0x4 ADD PUSH1 0x40 MLOAD DUP1 SWAP2 SUB SWAP1 REVERT JUMPDEST PUSH1 0x40 MLOAD PUSH1 0x1 PUSH1 0x1 PUSH1 0xA0 SHL SUB DUP5 DUP2 AND PUSH1 0x24 DUP4 ADD MSTORE DUP4 DUP2 AND PUSH1 0x44 DUP4 ADD MSTORE PUSH1 0x64 DUP3 ADD DUP4 SWAP1 MSTORE PUSH2 0xBBA SWAP2 DUP7 SWAP2 DUP3 AND SWAP1 PUSH4 0x23B872DD SWAP1 PUSH1 0x84 ADD PUSH2 0x12FB JUMP JUMPDEST PUSH1 0x0 DUP1 PUSH1 0x20 PUSH1 0x0 DUP5 MLOAD PUSH1 0x20 DUP7 ADD PUSH1 0x0 DUP9 GAS CALL DUP1 PUSH2 0x14B9 JUMPI PUSH1 0x40 MLOAD RETURNDATASIZE PUSH1 0x0 DUP3 RETURNDATACOPY RETURNDATASIZE DUP2 REVERT JUMPDEST POP POP PUSH1 0x0 MLOAD RETURNDATASIZE SWAP2 POP DUP2 ISZERO PUSH2 0x14D1 JUMPI DUP1 PUSH1 0x1 EQ ISZERO PUSH2 0x14DE JUMP JUMPDEST PUSH1 0x1 PUSH1 0x1 PUSH1 0xA0 SHL SUB DUP5 AND EXTCODESIZE ISZERO JUMPDEST ISZERO PUSH2 0xBBA JUMPI PUSH1 0x40 MLOAD PUSH4 0x5274AFE7 PUSH1 0xE0 SHL DUP2 MSTORE PUSH1 0x1 PUSH1 0x1 PUSH1 0xA0 SHL SUB DUP6 AND PUSH1 0x4 DUP3 ADD MSTORE PUSH1 0x24 ADD PUSH2 0x398 JUMP JUMPDEST PUSH1 0x2 SLOAD PUSH1 0xFF AND PUSH2 0x6A9 JUMPI PUSH1 0x40 MLOAD PUSH4 0x8DFC202B PUSH1 0xE0 SHL DUP2 MSTORE PUSH1 0x4 ADD PUSH1 0x40 MLOAD DUP1 SWAP2 SUB SWAP1 REVERT JUMPDEST PUSH1 0x0 PUSH1 0x20 DUP3 DUP5 SUB SLT ISZERO PUSH2 0x153C JUMPI PUSH1 0x0 DUP1 REVERT JUMPDEST POP CALLDATALOAD SWAP2 SWAP1 POP JUMP JUMPDEST PUSH4 0x4E487B71 PUSH1 0xE0 SHL PUSH1 0x0 MSTORE PUSH1 0x21 PUSH1 0x4 MSTORE PUSH1 0x24 PUSH1 0x0 REVERT JUMPDEST PUSH1 0x5 DUP2 LT PUSH2 0x1577 JUMPI PUSH4 0x4E487B71 PUSH1 0xE0 SHL PUSH1 0x0 MSTORE PUSH1 0x21 PUSH1 0x4 MSTORE PUSH1 0x24 PUSH1 0x0 REVERT JUMPDEST SWAP1 MSTORE JUMP JUMPDEST PUSH1 0x0 PUSH1 0xE0 DUP3 ADD SWAP1 POP DUP3 MLOAD DUP3 MSTORE PUSH1 0x20 DUP4 ADD MLOAD PUSH1 0x1 DUP1 PUSH1 0xA0 SHL SUB DUP1 DUP3 AND PUSH1 0x20 DUP6 ADD MSTORE DUP1 PUSH1 0x40 DUP7 ADD MLOAD AND PUSH1 0x40 DUP6 ADD MSTORE POP POP PUSH1 0x60 DUP4 ADD MLOAD PUSH1 0x60 DUP4 ADD MSTORE PUSH1 0x80 DUP4 ADD MLOAD PUSH2 0x15C5 PUSH1 0x80 DUP5 ADD DUP3 PUSH2 0x1559 JUMP JUMPDEST POP PUSH1 0xA0 DUP4 ADD MLOAD PUSH1 0xA0 DUP4 ADD MSTORE PUSH1 0xC0 DUP4 ADD MLOAD PUSH1 0xC0 DUP4 ADD MSTORE SWAP3 SWAP2 POP POP JUMP JUMPDEST DUP1 CALLDATALOAD PUSH1 0x1 PUSH1 0x1 PUSH1 0xA0 SHL SUB DUP2 AND DUP2 EQ PUSH2 0x15F7 JUMPI PUSH1 0x0 DUP1 REVERT JUMPDEST SWAP2 SWAP1 POP JUMP JUMPDEST PUSH1 0x0 DUP1 PUSH1 0x40 DUP4 DUP6 SUB SLT ISZERO PUSH2 0x160F JUMPI PUSH1 0x0 DUP1 REVERT JUMPDEST DUP3 CALLDATALOAD SWAP2 POP PUSH2 0x161F PUSH1 0x20 DUP5 ADD PUSH2 0x15E0 JUMP JUMPDEST SWAP1 POP SWAP3 POP SWAP3 SWAP1 POP JUMP JUMPDEST DUP8 DUP2 MSTORE PUSH1 0x1 PUSH1 0x1 PUSH1 0xA0 SHL SUB DUP8 DUP2 AND PUSH1 0x20 DUP4 ADD MSTORE DUP7 AND PUSH1 0x40 DUP3 ADD MSTORE PUSH1 0x60 DUP2 ADD DUP6 SWAP1 MSTORE PUSH1 0xE0 DUP2 ADD PUSH2 0x165A PUSH1 0x80 DUP4 ADD DUP7 PUSH2 0x1559 JUMP JUMPDEST PUSH1 0xA0 DUP3 ADD SWAP4 SWAP1 SWAP4 MSTORE PUSH1 0xC0 ADD MSTORE SWAP6 SWAP5 POP POP POP POP POP JUMP JUMPDEST PUSH1 0x0 DUP1 PUSH1 0x40 DUP4 DUP6 SUB SLT ISZERO PUSH2 0x1682 JUMPI PUSH1 0x0 DUP1 REVERT JUMPDEST POP POP DUP1 CALLDATALOAD SWAP3 PUSH1 0x20 SWAP1 SWAP2 ADD CALLDATALOAD SWAP2 POP JUMP JUMPDEST PUSH1 0x0 PUSH1 0x20 DUP3 DUP5 SUB SLT ISZERO PUSH2 0x16A3 JUMPI PUSH1 0x0 DUP1 REVERT JUMPDEST PUSH2 0x16AC DUP3 PUSH2 0x15E0 JUMP JUMPDEST SWAP4 SWAP3 POP POP POP JUMP JUMPDEST PUSH1 0x20 DUP1 DUP3 MSTORE PUSH1 0x13 SWAP1 DUP3 ADD MSTORE PUSH19 0x15185CDAC8191BD95CC81B9BDD08195E1A5CDD PUSH1 0x6A SHL PUSH1 0x40 DUP3 ADD MSTORE PUSH1 0x60 ADD SWAP1 JUMP JUMPDEST PUSH1 0x0 PUSH1 0x20 DUP3 DUP5 SUB SLT ISZERO PUSH2 0x16F2 JUMPI PUSH1 0x0 DUP1 REVERT JUMPDEST POP MLOAD SWAP2 SWAP1 POP JUMP JUMPDEST PUSH4 0x4E487B71 PUSH1 0xE0 SHL PUSH1 0x0 MSTORE PUSH1 0x11 PUSH1 0x4 MSTORE PUSH1 0x24 PUSH1 0x0 REVERT JUMPDEST DUP1 DUP3 MUL DUP2 ISZERO DUP3 DUP3 DIV DUP5 EQ OR PUSH2 0x1260 JUMPI PUSH2 0x1260 PUSH2 0x16F9 JUMP JUMPDEST PUSH1 0x0 DUP3 PUSH2 0x1743 JUMPI PUSH4 0x4E487B71 PUSH1 0xE0 SHL PUSH1 0x0 MSTORE PUSH1 0x12 PUSH1 0x4 MSTORE PUSH1 0x24 PUSH1 0x0 REVERT JUMPDEST POP DIV SWAP1 JUMP JUMPDEST DUP2 DUP2 SUB DUP2 DUP2 GT ISZERO PUSH2 0x1260 JUMPI PUSH2 0x1260 PUSH2 0x16F9 JUMP JUMPDEST DUP1 DUP3 ADD DUP1 DUP3 GT ISZERO PUSH2 0x1260 JUMPI PUSH2 0x1260 PUSH2 0x16F9 JUMP JUMPDEST PUSH1 0x0 PUSH1 0x1 DUP3 ADD PUSH2 0x1780 JUMPI PUSH2 0x1780 PUSH2 0x16F9 JUMP JUMPDEST POP PUSH1 0x1 ADD SWAP1 JUMP INVALID LOG2 PUSH5 0x6970667358 0x22 SLT KECCAK256 PUSH21 0x4A31E59C1AF0FDB164B57334FE157197C1736F37A5 0xCC PUSH30 0x8F5E2D5479670DC564736F6C634300081400330000000000000000000000 "},"methodIdentifiers":{"BPS_DENOMINATOR()":"e1a45218","PLATFORM_FEE_BPS()":"539aa77f","approveSubmission(uint256)":"80fd0fb3","assignWorker(uint256,address)":"7464a25b","cUSD()":"1fccf672","cancelTask(uint256)":"7eec20a8","claimExpiredTask(uint256)":"0fd6fc47","createTask(uint256,uint256)":"e75b2378","getContractBalance()":"6f9fb98a","getTask(uint256)":"1d65e77e","isTaskExpired(uint256)":"6893bd76","owner()":"8da5cb5b","pause()":"8456cb59","paused()":"5c975abb","platformFeesAccumulated()":"f641fe39","rejectSubmission(uint256)":"c14f7ea8","renounceOwnership()":"715018a6","taskCounter()":"58671730","taskExists(uint256)":"d90583df","tasks(uint256)":"8d977672","transferOwnership(address)":"f2fde38b","unpause()":"3f4ba83a","withdrawPlatformFees()":"d0b7830b"}}}}}